:02000000642A70
:10000600FB09FA09F909F809F80A0319F90A0319A3
:08001600FA0A0319FB0A0800B5
:10001E007408F8027508031C750FF9027608031CA4
:10002E00760FFA027708031C770FFB02F30D0730E9
:10003E00FC00730DF80DF90DFA0DFB0D7408731C11
:10004E003628F8027508031C750FF9027608031C92
:10005E00760FFA027708031C770FFB024328F80786
:10006E0075080318750FF90776080318760FFA0747
:10007E0077080318770FFB07F30DFC0B2028720D82
:10008E00F80DF90DFA0DFB0D7408731C5C28F802BF
:10009E007508031C750FF9027608031C760FFA0219
:1000AE007708031C770FFB026928F80775080318F9
:1000BE00750FF90776080318760FFA0777080318F5
:1000CE00770FFB07F20D0730FC00720DF80DF90DDE
:1000DE00FA0DFB0D7408721C8228F8027508031CB9
:1000EE00750FF9027608031C760FFA027708031CC7
:1000FE00770FFB028F28F80775080318750FF9079D
:10010E0076080318760FFA0777080318770FFB07A0
:10011E00F20DFC0B6C28710DF80DF90DFA0DFB0D9F
:10012E007408721CA828F8027508031C750FF902D2
:10013E007608031C760FFA027708031C770FFB0272
:10014E00B528F80775080318750FF9077608031810
:10015E00760FFA0777080318770FFB07F10D0730B4
:10016E00FC00710DF80DF90DFA0DFB0D7408711CE4
:10017E00CE28F8027508031C750FF9027608031CC9
:10018E00760FFA027708031C770FFB02DB28F807BD
:10019E0075080318750FF90776080318760FFA0716
:1001AE0077080318770FFB07F10DFC0BB828700DBD
:1001BE00F80DF90DFA0DFB0D7408711CF428F802F8
:1001CE007508031C750FF9027608031C760FFA02E8
:1001DE007708031C770FFB020129F807750803182F
:1001EE00750FF90776080318760FFA0777080318C4
:1001FE00770FFB07F00D0730FC00700DF80DF90DB1
:10020E00FA0DFB0D7408701C1A29F8027508031CF0
:10021E00750FF9027608031C760FFA027708031C95
:10022E00770FFB022729F80775080318750FF907D2
:10023E0076080318760FFA0777080318770FFB076F
:10024E00F00DFC0B042970183A297408F80775088C
:10025E000318750FF90776080318760FFA07770853
:08026E000318770FFB070800DD
:10027600831203130C1A40293B294B0899000800E6
:10028600831203137408003A031D5E297508003AA9
:10029600031D5E297608003A031D5E297708003A99
:1002A600031D5E29FF30F000FF30F100FF30F20041
:1002B6007F30F300F72983120313FC01F71BFC0AB6
:1002C600FD01FB01FA01F901F801730872047104DA
:1002D60070040319F22973087706A000A01BFD0914
:1002E600F71F8029F409F509F609F709F40A031935
:1002F600F50A0319F60A0319F70AF31F8D29F009FF
:10030600F109F209F309F00A0319F10A0319F20ACD
:100316000319F30A73087704A000A01BAE290F2067
:10032600FC1BCB29FD1FF229F009F109F209F3099B
:10033600F00A0319F10A0319F20A0319F30AF80974
:10034600F909FA09FB09F80A0319F90A0319FA0A5D
:100356000319FB0AF229F71FC529F31BBF297308E6
:10036600FB007208FA007108F9007008F800F30142
:10037600F201F101F0019529F301F201F101F00119
:10038600F00A0034F309F209F109F009FC17922981
:10039600F80A0319F90A0319FA0A0319FB0A740879
:1003A6007802031D952975087902031D952976089B
:1003B6007A02031D952977087B02031D9529FB0107
:1003C600FA01F901F801F00A0319F10A0319F20A10
:1003D6000319F30AF31F9529A0012016FF34A00183
:0A03E6007C1CF6290320003E0800ED
:0E03F0008312031347088A00460882000800A3
:1003FE008312031349088400000803190D2A4908C3
:0E040E0084000008CB003B21C90AFF2908002A
:10041C00831203134908F4004A08F500F601F701AA
:10042C002030F000A130F1000730F2000030F30072
:10043C0043210130F800F901FA01FB017008F400C6
:10044C007108F5007208F6007308F7007808F402DA
:10045C007908031C790FF5027A08031C7A0FF6024F
:10046C007B08031C7B0FF7028316071387171815DD
:10047C007408990018128312981783169816831211
:0C048C00181683161813831218130800AA
:1004980083120313981C522A181218168C1A552AFC
:0804A800522A1A08F0000800B6
:1004B000F8218A110A128000840AC60A0319C70AA1
:0804C000F003031D582A080097
:1004C800B82283120313C801831686118030831261
:1004D800C9002530CA000E223030C900FF214C2245
:1004E8007008C8007008313A031D812A861521302A
:1004F800C900FF210D30CB003B214808303A031DCD
:100508008C2A86112830C900FF210D30CB003B21F1
:04051800732A8D2A8B
:1005700021308400253083120313F0009330C6002D
:080580000230C70058220800F8
:0E0526004C344534443420344F344E340034C9
:100534004C344534443420344F3446344634003447
:1005440049346E3469347434693461346C346934D4
:100554007A3465342034553441345234543420349C
:0C0564006D346F34643465340A340034A4
:02400E004A2F37
:00000001FF
