:02000000F129E4
:100006001F30831603131105F000031D0D28141964
:080016000D280E280328080044
:10001E0083120313FB01FA01F901F801A001730D1C
:10002E00F80D7408F8027508031C750FF9027608AE
:10003E00031C760FFA027708031C770FFB020001F0
:10004E00031C0130A002F30D0730FC00730DF80DF8
:10005E00F90DFA0DFB0DA00D7408731C4828F8025B
:10006E007508031C750FF9027608031C760FFA0249
:10007E007708031C770FFB020001031C0130A0025E
:10008E005928F80775080318750FF907760803182D
:10009E00760FFA0777080318770FFB07000103188E
:1000AE000130A007F30DFC0B2D28720DF80DF90D84
:1000BE00FA0DFB0DA00D7408731C7728F802750855
:1000CE00031C750FF9027608031C760FFA027708E7
:1000DE00031C770FFB020001031C0130A0028828CD
:1000EE00F80775080318750FF90776080318760FC9
:1000FE00FA0777080318770FFB0700010318013082
:10010E00A007F20D0730FC00720DF80DF90DFA0D77
:10011E00FB0DA00D7408721CA628F8027508031CAE
:10012E00750FF9027608031C760FFA027708031C86
:10013E00770FFB020001031C0130A002B728F8075D
:10014E0075080318750FF90776080318760FFA0766
:10015E0077080318770FFB07000103180130A0077B
:10016E00F20DFC0B8B28710DF80DF90DFA0DFB0D30
:10017E00A00D7408721CD528F8027508031C750FA3
:10018E00F9027608031C760FFA027708031C770F24
:10019E00FB020001031C0130A002E628F8077508D7
:1001AE000318750FF90776080318760FFA07770804
:1001BE000318770FFB07000103180130A007F10D9C
:1001CE000730FC00710DF80DF90DFA0DFB0DA00DA9
:1001DE007408711C0429F8027508031C750FF902C6
:1001EE007608031C760FFA027708031C770FFB02C2
:1001FE000001031C0130A0021529F8077508031829
:10020E00750FF90776080318760FFA0777080318A3
:10021E00770FFB07000103180130A007F10DFC0B4F
:10022E00E928700DF80DF90DFA0DFB0DA00D7408EF
:10023E00711C3329F8027508031C750FF902760834
:10024E00031C760FFA027708031C770FFB020001DE
:10025E00031C0130A0024429F80775080318750F16
:10026E00F90776080318760FFA0777080318770F41
:10027E00FB07000103180130A007F00D0730FC004A
:10028E00700DF80DF90DFA0DFB0DA00D7408701C14
:10029E006229F8027508031C750FF9027608031C13
:1002AE00760FFA027708031C770FFB020001031C7E
:1002BE000130A0027329F80775080318750FF907A6
:1002CE0076080318760FFA0777080318770FFB07DF
:1002DE00000103180130A007F00DFC0B4729701820
:1002EE0086297408F80775080318750FF90776083C
:1002FE000318760FFA0777080318770FFB07080025
:06030E0003201114080099
:1003140003209115032083121308A50003208312E0
:10032400230803199729A40199290130A40024184A
:100334009E2983169112A0298316911611168312F1
:060344002508F00008008E
:10034A00831203132308F4002408F5002508F60095
:10035A002608F700F40DF50DF60DF70D7410F40DDF
:10036A00F50DF60DF70D74100030F0001230F100A3
:10037A007A30F2000030F3000F200130F800F90162
:10038A00FA01FB017008F4007108F5007208F60022
:10039A007308F7007808F4027908031C790FF5024C
:1003AA007A08031C7A0FF6027B08031C7B0FF702FC
:1003BA008316871507162830831294008316910135
:0803CA0074089300940108007F
:0A03D20003208312230893000800A3
:0603DC00032011150800CA
:1003E200A03083120313A3008630A4000130A500BD
:1003F2000030A600A5218721A0308312A300E921A5
:100402000130A300E9217930A300E921EE210B306C
:10041200FB002630FC005D30FD00FD0B0E2AFC0BBC
:100422000E2AFB0B0E2A000000008721A130831246
:10043200A300E921A3018A21EE211F30FB007130C4
:10044200FC001E30FD00FD0B242AFC0B242AFB0BB2
:08045200242A0000FC292C2AD9
:02400E004A2F37
:00000001FF
