:02000000162ABE
:10000800FF00030E8301C7000A08C6008A017008B2
:10001800A0000B1C1528C8217008C30001308606F3
:100028000B102008F00046088A00470E8300FF0ED8
:040038007F0E09002E
:0E003C008312031345088A004408820008005E
:10004A00710DF80DF90D7408F8027508031C750F87
:10005A00F902F00DF10D0F30FC00710DF80DF90DDC
:10006A007408701C3E28F8027508031C750FF90203
:10007A004328F80775080318750FF907F00DF10DF5
:10008A00FC0B322870184F287408F80775080318F3
:08009A00750FF90700000800D2
:1000A200831203135508693EF00002300318013E23
:1000B2005607F1007008C4007108C5001E208A119D
:0600C2000A12880008008C
:1000C800831203137408003A031D73287508003A55
:1000D800031D7328FF30F0007F30F100CC28831215
:1000E8000313FD01F901F8017108700403190034C4
:1000F80071087506FA00FA1BFD09FB01F51F89282E
:10010800F409F509F40A0319F50AF11F9028F00912
:10011800F109F00A0319F10A71087504FA00FA1BCB
:10012800A52825207B18B828FD1F0034F009F109FF
:10013800F00A0319F10AF809F909F80A0319F90A82
:100148000034F51FB428F11BB0287108F9007008B5
:10015800F800F101F0019828F101F001F00A0034EB
:10016800F109F009FB0A9528F80A0319F90A740835
:100178007802031D982875087902031D9828F9014B
:10018800F801F00A0319F10AF11F98280000FF345A
:0201980008005D
:10019A00E83083120313F4000330F5004908F00035
:1001AA004A08F10064207008D3007108D400E830CE
:1001BA00F4000330F5004908F0004A08F100642011
:1001CA007808F0007908F1007008D1007108D200AF
:1001DA006430F4000030F5005108F0005208F100D4
:1001EA0064207008CB007108CC006430F400003041
:1001FA00F5005108F0005208F10064207808F00078
:10020A007908F1007008D1007108D2000A30F400B0
:10021A000030F5005108F0005208F100642070081F
:10022A00CD007108CE000A30F4000030F500510804
:10023A00F0005208F10064207808F0007908F10013
:10024A007008CF007108D0005308D5005408D600B2
:10025A00512007160330FC009730FD00FD0B3329AF
:10026A00FC0B33290000000007124B08D5004C088C
:10027A00D600512087160330FC009730FD00FD0B95
:10028A004429FC0B44290000000087124D08D500C0
:10029A004E08D600512007170330FC009730FD00A6
:1002AA00FD0B5529FC0B55290000000007134F08C8
:1002BA00D5005008D600512087170330FC0097302C
:1002CA00FD00FD0B6629FC0B662900000000871360
:0202DA0008001A
:1002DC0083120313C9018711861B76290130C900CB
:1002EC00061B7A290230C900861A7E290330C90000
:1002FC00061A82290430C90087150711861B882924
:10030C000530C900061B8C290630C900861A9029B5
:10031C000730C900061A94290830C9000715871040
:10032C00861B9A290930C900061B9E290A30C90070
:10033C00861AA2290B30C900061AA6290C30C9004E
:10034C0087140710861BAC290D30C900061BB02979
:10035C000E30C900861AB4290F30C900061AB82904
:0C036C001030C90007144908F000080018
:100378001E208A110A128000840AC40A0319C50AB9
:08038800F003031DBC2908006D
:1003900083120313D7018711861BD0290130D700A0
:1003A000061BD4290230D700861AD8290330D7007B
:1003B000061ADC290430D70087150711861BE229AD
:1003C0000530D700061BE6290630D700861AEA2931
:1003D0000730D700061AEE290830D7000715871016
:1003E000861BF4290930D700061BF8290A30D700EC
:1003F000861AFC290B30D700061A002A0C30D700C9
:1004000087140710861B062A0D30D700061B0A2A00
:100410000E30D700861A0E2A0F30D700061A122A7D
:0C0420001030D70007145708F000080047
:10042C00742283120313C801F030831686008801EE
:10043C00870101178B178B156E214308003A03199E
:10044C00292A4308C80001304802F300F401031CB8
:10045C00F4037308F0007408F100F00DF10D701046
:10046C007008213E84000008C900840A0008CA00F4
:06047C00CD20222A402AD7
:1004E80021308400233083120313F0004630C40007
:0804F8000230C500BC21080020
:10048C000A340034073400340434003401340034AA
:10049C0000340034083400340534003402340034A1
:1004AC000B34003409340034063400340334003483
:1004BC000C3400340D3400340E3400340F3400345A
:0404CC0000340034C4
:0204D0000134F5
:1004D200C034F934A434B034993492348234F834C8
:0404E200803490349E
:02400E00CA2FB7
:00000001FF
