:020000006A296B
:0E0006008312031321088A00200882000800DC
:10001400710DF80DF90D7408F8027508031C750FBD
:10002400F902F00DF10D0F30FC00710DF80DF90D12
:100034007408701C2328F8027508031C750FF90254
:100044002828F80775080318750FF907F00DF10D46
:10005400FC0B1728701834287408F807750803185F
:08006400750FF9070000080008
:10006C00831203137408003A031D45287508003ADF
:10007C00031D4528FF30F0007F30F1009E288312CD
:10008C000313FD01F901F801710870040319003420
:10009C0071087506FA00FA1BFD09FB01F51F5B28B8
:1000AC00F409F509F40A0319F50AF11F6228F0099D
:1000BC00F109F00A0319F10A71087504FA00FA1B28
:1000CC0077280A207B188A28FD1F0034F009F109D3
:1000DC00F00A0319F10AF809F909F80A0319F90ADF
:1000EC000034F51F8628F11B82287108F90070086E
:1000FC00F800F101F0016A28F101F001F00A003476
:10010C00F109F009FB0A6728F80A0319F90A7408BF
:10011C007802031D6A2875087902031D6A28F90103
:10012C00F801F00A0319F10AF11F6A280000FF34E4
:02013C000800B9
:10013E008312031332089C3EF00001300318013E77
:10014E003307F1007008A0007108A10003208A1186
:06015E000A1288000800EF
:10016400831203133208F0003308F1000130B202A5
:10017400031CB303700871040319C7286430810099
:0C0184000B110B19C628C328B228080074
:10019000E83083120313F4000330F5002608F00062
:1001A0002708F10036207008B0007108B100E8306F
:1001B000F4000330F5002608F0002708F10036208F
:1001C0007808F0007908F1007008AE007108AF00FF
:1001D0006430F4000030F5002E08F0002F08F10024
:1001E00036207008A8007108A9006430F4000030BF
:1001F000F5002E08F0002F08F10036207808F000F6
:100200007908F1007008AE007108AF000A30F40000
:100210000030F5002E08F0002F08F100362070089D
:10022000AA007108AB000A30F4000030F5002E0877
:10023000F0002F08F10036207808F0007908F1006E
:100240007008AC007108AD003008B2003108B3008E
:100250009F2006160130B2000030B300B220831296
:10026000031306122808B2002908B3009F2086163F
:100270000130B2000030B300B220831203138612A3
:100280002A08B2002B08B3009F2006170130B200E5
:100290000030B300B2208312031306132C08B200FF
:1002A0002D08B3009F2086170130B2000030B30044
:0A02B000B220831203138613080026
:1002BA008316031388010612861206138613811207
:0A02CA0081110115811001100800D8
:1002D40083120313A201A301A401A5015D218312CA
:1002E400A201A3018030273AF00080302306700277
:1002F400031D7E2922080F3C031C9A29A401A50191
:100304008030F000803025067002031D8B292408FC
:100314000A3C031C96292208A6002308A700C8202B
:10032400A40A0319A50A8229A20A0319A30A742993
:0403340071299B2967
:10033800C034F934A434B034993492348234F83463
:040348008034903439
:02400E004A2F37
:00000001FF
