:020000008B294A
:10000600063083120313FD00FD0B072800000800CD
:06001600000000000800DC
:0A001C000320881703208813080052
:10002600831203138813881608133D0886000E20D2
:020036000800C0
:1000380083120313FB01FA01F9018030F800F10C77
:10004800F00C031C30287408F90775080318750F9D
:10005800FA070318FB0A0310F01F38287408FA0778
:1000680075080318750FFB07FB0CFA0CF90CF80C54
:10007800031C23287B08F3007A08F2007908F100B2
:060088007808F0000800FA
:10008E007F30831203133D05F0007008BD00881207
:10009E000813BF30F0057008BD0070177008BD0062
:0800AE00700886000E20080016
:1000B6007F30831203133D05F1007108BD00711FE7
:0E00C600672888150812692888110816080096
:1000D4008312031388120813B8303D0486000E20DF
:0200E400080012
:0E00E600831203132D088A002C0882000800E4
:1000F400803083120313F0007008063E8400FF3042
:1001040080000B200B2088168813081788170320FB
:100114000608BD00881308130B200B208030F00064
:0E0124007008063E840080013D08F0000800CF
:10013200831203133508073C0318A0282C2927082B
:100142003302F0002808031C013EF101F1022608E7
:10015200F400F5011C207008BB007108BC003408D3
:10016200BD0047203508BD006A20B70126083702C6
:1001720003180B2934087F3C0318C0282C293408A3
:10018200BD005B203508BD006A203408BD00472051
:100192007A207008B8007A207008B8003408BD00D0
:1001A2005B203508BD006A203408BD0047203B08AB
:1001B2002907F0002A080318013E3C07F1007008E5
:1001C200AC007108AD0073208A110A12F0007008A9
:1001D200B900BB0A0319BC0A7009BA00F9283A0827
:1001E200B80005293908B80005293908B8060529D3
:1001F2003608003A0319F0283608013A0319F328A1
:100202003608023A0319F6283808BD001320B40A4A
:10021200B70AB7283408BD005B203508BD006A2044
:100222003408BD004720FF30B900BA01242939083B
:10023200B8003908BD0013202C293A08B8003A0842
:10024200BD0013202C293608003A03191829360854
:08025200013A03191E290800FE
:10025A0083120313B2012B08003A031D402905300B
:10026A00A6000730A500A030A9000130AA0020305E
:10027A00A7000030A80032082E07840000080319DE
:10028A00582932082E0784000008B3002F08B4004A
:10029A003008B5003108B6009920260AF000700827
:0802AA00AF07B20A4029080069
:1002B20083120313AB0183160810881388120813E4
:1002C20088110812831208108030F0007008063E70
:1002D20084008001881208138811081608143F3020
:1002E20086000E20C03086000E20881508123F308E
:0C02F20086000E20C03086000E200800A0
:1002FE0073208A110A128000840AAC0A0319AD0A0F
:08030E00F003031D7F29080024
:10031600683083120313A0006130A1006830A20088
:100326006130A300A40159212030AE00AF01023094
:0A033600B000B1012D219E299F297E
:1003400000340034003400340034003400345F34AE
:1003500000340034003407340034073400341434DB
:100360007F3414347F34143424342A347F342A34D0
:100370001234233413340834643462343634493448
:1003800055342234503400340534033400340034FE
:1003900000341C34223441340034003441342234DB
:1003A0001C34003408342A341C342A340834083409
:1003B00008343E34083408340034503430340034C7
:1003C0000034083408340834083408340034303435
:1003D000303400340034203410340834043402340F
:1003E0003E345134493445343E34003442347F3451
:1003F0004034003442346134513449344634213479
:10040000413445344B3431341834143412347F348D
:100410001034273445344534453439343C344A3477
:1004200049344934303401347134093405340334E7
:10043000363449344934493436340634493449343D
:1004400029341E3400343634363400340034003459
:100450005634363400340034003408341434223432
:1004600041341434143414341434143441342234E4
:10047000143408340034023401345134093406345D
:1004800032344934793441343E347E3411341134B9
:1004900011347E347F3449344934493436343E345F
:1004A00041344134413422347F34413441342234A4
:1004B0001C347F3449344934493441347F3409345D
:1004C0000934013401343E3441344134513432343E
:1004D0007F340834083408347F34003441347F34A6
:1004E000413400342034403441343F3401347F34CB
:1004F00008341434223441347F344034403440349E
:1005000040347F340234043402347F347F34043482
:10051000083410347F343E344134413441343E3465
:100520007F3409340934093406343E3441345134BB
:1005300021345E347F340934193429344634463446
:100540004934493449343134013401347F3401347D
:1005500001343F344034403440343F341F3420347D
:10056000403420341F347F342034183420347F3416
:100570006334143408341434633403340434783466
:100580000434033461345134493445344334003441
:1005900000347F344134413402340434083410349C
:1005A0002034413441347F34003400340434023484
:1005B0000134023404344034403440344034403454
:1005C00000340134023404340034203454345434BC
:1005D000543478347F3448344434443438343834F0
:1005E0004434443444342034383444344434483477
:1005F0007F343834543454345434183408347E340A
:1006000009340134023408341434543454343C343E
:100610007F340834043404347834003444347D3472
:10062000403400342034403444343D340034003409
:100630007F34103428344434003441347F3440341F
:1006400000347C3404341834043478347C34083472
:10065000043404347834383444344434443438343E
:100660007C341434143414340834083414341434FA
:1006700018347C347C34083404340434083448346A
:10068000543454345434203404343F3444344034E7
:1006900020343C344034403420347C341C34203406
:1006A000403420341C343C344034303440343C3406
:1006B000443428341034283444340C345034503406
:1006C00050343C344434643454344C344434003472
:1006D0000834363441340034003400347F3400347C
:1006E00000340034413436340834003408340834DB
:1006F0002A341C34083408341C342A3408340834AE
:02400E004A2F37
:00000001FF
