:020000007B2B58
:0E0006008312031322088A00210882000800DA
:0E001400F201F101F001F801F30100300800E3
:08002200FA1FF2130030080080
:10002A00710DF80DF90D7408F8027508031C750FA7
:10003A00F902F00DF10D0F30FC00710DF80DF90DFC
:10004A007408701C2E28F8027508031C750FF90233
:10005A003328F80775080318750FF907F00DF10D25
:10006A00FC0B222870183F287408F8077508031833
:08007A00750FF90700000800F2
:100082007B15FB1F4B280130F300F201F101F00157
:08009200FA0DF20CFF3008002A
:10009A00831203133508DD3EF00003300318013ED6
:1000AA003607F1007008A1007108A20003208A1126
:0600BA000A128700080095
:1000C000A0017208031D75287108F2007008F10084
:1000D000F001A0157208031D75287108F200F101E6
:1000E000A01120167208031983282008F302031DAB
:1000F000031C87280310F21B8B28F00DF10DF20D65
:10010000F30B7B2887280130FC000A208E28023060
:0E011000FC0041208E280430FC001120080065
:10011E00FB14FB1F9928FF30F300F200F100F000F2
:08012E00FA0DF20CFF3008008D
:10013600831203133508D33EF00003300318013E43
:100146003607F1007008A1007108A20003208A1189
:060156000A1287000800F8
:10015C00831203137408003A031DBD287508003A76
:10016C00031DBD28FF30F0007F30F10016298312EB
:10017C000313FD01F901F80171087004031900342F
:10018C0071087506FA00FA1BFD09FB01F51FD3284F
:10019C00F409F509F40A0319F50AF11FDA28F00934
:1001AC00F109F00A0319F10A71087504FA00FA1B37
:1001BC00EF2815207B180229FD1F0034F009F109E6
:1001CC00F00A0319F10AF809F909F80A0319F90AEE
:1001DC000034F51FFE28F11BFA287108F90070088D
:1001EC00F800F101F001E228F101F001F00A00340D
:1001FC00F109F009FB0ADF28F80A0319F90A740857
:10020C007802031DE22875087902031DE228F90122
:10021C00F801F00A0319F10AF11FE2280000FF347B
:02022C000800C8
:06022E00FB15FF30080083
:100234007B14FB1F2529F201FA1FFF30F200F100A5
:0A024400F000FA0DF20CFF30080084
:10024E0083120313FB017308031D770803197E291C
:10025E0072087606FA007708F3077E30031C3B29F6
:10026E00F302031881293E29F302031C8429720824
:10027E00F8007108FC007008FD00F817F61703105F
:10028E00F201F101F0011830A0007D1C582974080C
:10029E00F00775080318750FF10776080318760F27
:1002AE00F207F20CF10CF00CF80CFC0CFD0C031028
:1002BE00A00B4C29F21B6829F80DF00DF10DF20D73
:1002CE00F3037B1B701C7A29F81F7A29F00A031995
:1002DE00F10A0319F20A031D7A29F20CF10CF00C43
:1002EE00F30A03198129FA1FF2130030862901300F
:1002FE000A20862902308F208629043041200000F2
:02030E000800E5
:10031000E83083120313F4000330F5002908F000DD
:100320002A08F100AE207008B3007108B400E8306C
:10033000F4000330F5002908F0002A08F100AE208F
:100340007808F0007908F1007008B1007108B20077
:100350006430F4000030F5003108F0003208F1009C
:10036000AE207008AB007108AC006430F4000030BF
:10037000F5003108F0003208F100AE207808F000F6
:100380007908F1007008B1007108B2000A30F40079
:100390000030F5003108F0003208F100AE2070089E
:1003A000AD007108AE000A30F4000030F5003108ED
:1003B000F0003208F100AE207808F0007908F10072
:1003C0007008AF007108B0003308B5003408B600FB
:1003D0009B2008140730FC007D30FD00FD0BEE294A
:1003E000FC0BEE2908102B08B5002C08B6004D2098
:1003F00088140730FC007D30FD00FD0BFD29FC0B4F
:10040000FD2988102D08B5002E08B6009B20081580
:100410000730FC007D30FD00FD0B0C2AFC0B0C2A84
:1004200008112F08B5003008B6009B20881507304A
:10043000FC007D30FD00FD0B1B2AFC0B1B2A8811E4
:020440000800B2
:10044200831203137408003A031D3C2A7508003A0C
:10045200031D3C2A7608003A031D3C2A7708003A1D
:10046200031D3C2AFF30F000FF30F1007F30F20024
:10047200FF30F300D72A8312031377080319CB2A1C
:1004820073080319CE2A720876068039FA00F21729
:10049200F617A0017208F8007108FC007008FD0050
:1004A2007408FD027508031C750FFC027608031C14
:1004B200760FF802F801FC01FD01031C672A031004
:1004C200F20CF10CF00CF80C0130A0007708F302EA
:1004D200031C712A7E302007F3070318D12A762ADB
:1004E2007E302007F307031CD42A1830FA07FD0DCB
:1004F200FC0DF80DF00DF10DF20DA00D7408F002D7
:100502007508031C750FF1027608031C760FF202C0
:10051200760DA004201C8F2A7D149A2A7408F007F5
:1005220075080318750FF10776080318760AF207A3
:100532007D10FA031F307A05031D782A7B1B7D1C70
:10054200C12A0310F00DF10DF20DA00D7408F00296
:100552007508031C750FF1027608031C760FF20270
:10056200760D20040139FD070318FC0A0319F80A65
:10057200031DC12AF80CFC0CFD0CF30A0319D12A45
:10058200FA1FF8137808F2007C08F1007D08F000E9
:100592000030D62A01301721D62A02300A20D62A64
:0E05A20004308F20D62A0830412000000800C7
:1005B00083120313FB0173080319152B7208FA0049
:1005C000F2178E30F302F31F182BF309F30A0830E9
:1005D0007302031CFB2AF300F10D7208F100F20113
:1005E00008307302031CFB2AF300F10DF1017308BC
:1005F000031D0310032B73080319032B0310F20CC4
:10060000F10CF30BFE2A7B1B711C0D2B031C0D2B15
:10061000F10A0319F20AF21B242BFA1F272BF20905
:10062000F109F10A0319F20A272BF201F101272B34
:100630007B14FB1F2A2BF201FA1F2A2BFF30F2003A
:10064000F100FA0DF20C2A2B0130FC002C2B0030AB
:10065000FC002C2BFF30FC00FC080319302B1A2166
:0A0660007108F0007208F1000800B4
:10066A00831203137008F8007108F000F101F20117
:10067A00F301FB01FC019630F300FA017008F10066
:0C068A007808F000F801F2016020080080
:100696004130831203139F00CB3083169F0008005E
:1006A600C530831203139F050330F1002908F000BB
:1006B60071080319622BF00D7010FF3E5C2B700859
:1006C6009F040D30FC00FB30FD00FD0B682BFC0B7E
:1006D600682B000000001F151F1D722B6F2B1E08B4
:1006E600F100F00183161E08F0070318F10A08004E
:1006F600831603138701F0308800FF3083128700CA
:100706004B238312A901AA01532335230030F40099
:100716004030F5001C30F6008C30F7002721003001
:10072600F400C030F5007F30F6008830F700212253
:100736000030F4000030F5002030F6008230F7007B
:1007460021220030F4000030F5004830F6008530F4
:10075600F70027217008A5007108A6007208A700F7
:100766007308A800A301A4012408003C031DBD2BA7
:1007760023087D3C031CD12B2508F0002608F10038
:100786002708F2002808F300D8227008A90071088B
:10079600AA008821A30A0319A40AB72B842BD22BFB
:1007A600C034F934A434B034993492348234F834F1
:0407B60080349034C7
:1007BA0040347934243430341934123402347834DD
:0407CA0000341034B3
:02400E004A2F37
:00000001FF
