:040000008A15002835
:100006008312031388170830FC00C930FD00FD0B6E
:100016000A28FC0B0A280000000088138230FC0026
:10002600DD30FD00FD0B1528FC0B15280000000037
:020036000800C0
:10003800710DF80DF90D7408F8027508031C750F99
:10004800F902F00DF10D0F30FC00710DF80DF90DEE
:100058007408701C3528F8027508031C750FF9021E
:100068003A28F80775080318750FF907F00DF10D10
:10007800FC0B2928701846287408F8077508031817
:08008800750FF90700000800E4
:100090000130831603133505F000701852288312BF
:1000A000061254288312061683163508F000F00C49
:1000B000F0130130F0057018602883128612622850
:1000C0008312861683163508F000F00CF013F00C3E
:1000D000F0130130F005701870288312061372288F
:1000E0008312061783163508F000F00CF013F00C9D
:1000F000F013F00CF0130130F00570188228831211
:0A0100008613842883128617080076
:10010A00831203137408003A031D94287508003AF1
:10011A00031D9428FF30F0007F30F100ED28831290
:10012A000313FD01F901F801710870040319003481
:10013A0071087506FA00FA1BFD09FB01F51FAA28CA
:10014A00F409F509F40A0319F50AF11FB128F009AF
:10015A00F109F00A0319F10A71087504FA00FA1B89
:10016A00C6281C207B18D928FD1F0034F009F10984
:10017A00F00A0319F10AF809F909F80A0319F90A40
:10018A000034F51FD528F11BD1287108F900700831
:10019A00F800F101F001B928F101F001F00A003488
:1001AA00F109F009FB0AB628F80A0319F90A7408D2
:1001BA007802031DB92875087902031DB928F901C7
:1001CA00F801F00A0319F10AF11FB9280000FF34F7
:0201DA0008001B
:1001DC0083120313FB01FA01F9018030F800F10CD2
:1001EC00F00C031C02297408F90775080318750F25
:1001FC00FA070318FB0A0310F01F0A297408FA0700
:10020C0075080318750FFB07FB0CFA0CF90CF80CAE
:10021C00031CF5287B08F3007A08F2007908F1003A
:06022C007808F000080054
:10023200831603133408B500B50CB513B50CB5130A
:10024200B50CB513B50CB51348200320831634083A
:08025200B5004820032008005C
:10025A001F30831603131105F000031D37291419E3
:08026A00372938292D2908006D
:10027200043083120313F20083163008F0003108B1
:10028200F100720803194C29F10CF00CF113711BE7
:10029200F117FF3E43290A30F4000030F500EE204A
:1002A2000F3083163005F2003108F3000030F305F9
:0E02B2007208F00773080318013EF1070800F8
:0A02C0002D2130088312930008007E
:0602CA002D2111140800B3
:0E02D000831603132B088A002A0882000800F8
:1002DE002D2191152D21831213088316B2002D2185
:1002EE00300803197C29B1017E290130B100311883
:1002FE00822991128329911611163208F0000800F6
:10030E0083120313FB01FA01F901F801A001730D29
:10031E00F80D7408F8027508031C750FF9027608BB
:10032E00031C760FFA027708031C770FFB020001FD
:10033E00031C0130A002F30D0730FC00730DF80D05
:10034E00F90DFA0DFB0DA00D7408731CC029F802EF
:10035E007508031C750FF9027608031C760FFA0256
:10036E007708031C770FFB020001031C0130A0026B
:10037E00D129F80775080318750FF90776080318C1
:10038E00760FFA0777080318770FFB07000103189B
:10039E000130A007F30DFC0BA529720DF80DF90D18
:1003AE00FA0DFB0DA00D7408731CEF29F8027508E9
:1003BE00031C750FF9027608031C760FFA027708F4
:1003CE00031C770FFB020001031C0130A002002A60
:1003DE00F80775080318750FF90776080318760FD6
:1003EE00FA0777080318770FFB070001031801308F
:1003FE00A007F20D0730FC00720DF80DF90DFA0D85
:10040E00FB0DA00D7408721C1E2AF8027508031C41
:10041E00750FF9027608031C760FFA027708031C93
:10042E00770FFB020001031C0130A0022F2AF807F0
:10043E0075080318750FF90776080318760FFA0773
:10044E0077080318770FFB07000103180130A00788
:10045E00F20DFC0B032A710DF80DF90DFA0DFB0DC3
:10046E00A00D7408721C4D2AF8027508031C750F36
:10047E00F9027608031C760FFA027708031C770F31
:10048E00FB020001031C0130A0025E2AF80775086A
:10049E000318750FF90776080318760FFA07770811
:1004AE000318770FFB07000103180130A007F10DA9
:1004BE000730FC00710DF80DF90DFA0DFB0DA00DB6
:1004CE007408711C7C2AF8027508031C750FF9025A
:1004DE007608031C760FFA027708031C770FFB02CF
:1004EE000001031C0130A0028D2AF80775080318BD
:1004FE00750FF90776080318760FFA0777080318B1
:10050E00770FFB07000103180130A007F10DFC0B5C
:10051E00612A700DF80DF90DFA0DFB0DA00D740882
:10052E00711CAB2AF8027508031C750FF9027608C8
:10053E00031C760FFA027708031C770FFB020001EB
:10054E00031C0130A002BC2AF80775080318750FAA
:10055E00F90776080318760FFA0777080318770F4E
:10056E00FB07000103180130A007F00D0730FC0057
:10057E00700DF80DF90DFA0DFB0DA00D7408701C21
:10058E00DA2AF8027508031C750FF9027608031CA7
:10059E00760FFA027708031C770FFB020001031C8B
:1005AE000130A002EB2AF80775080318750FF9073A
:1005BE0076080318760FFA0777080318770FFB07EC
:1005CE00000103180130A007F00DFC0BBF2A7018B4
:1005DE00FE2A7408F80775080318750FF9077608D0
:1005EE000318760FFA0777080318770FFB07080032
:1005FE000A3083120313F4000030F500831630081E
:10060E00F0003108F10085200430F20070088316E6
:10061E00B2007108B300720803191A2BB20DB30D94
:10062E003210FF3E132B0A30F4000030F500300874
:10063E00F0003108F10085207808F0007908F1000B
:10064E0083163208F00733080318013EF10708003D
:10065E0083120313881683163008B40019218812EA
:02066E00080082
:060670002D211115080008
:10067600013083160313B40019211A30FC00F83038
:0E068600FD00FD0B442BFC0B442B0000080074
:10069400831603132C08031D532B2D08803EAE0034
:1006A400562B2D08C03EAE000330FC009730FD00F1
:1006B400FD0B5A2BFC0B5A2B000000002E08B40033
:1006C40019210330FC009730FD00FD0B672BFC0B58
:0806D400672B00000000080084
:1006DC00831603132C088400000803197D2B2C08A7
:1006EC0084000008B0002F238316AC0A6E2B080080
:1006FC006521D030B00060218316B0016021382311
:10070C006521D130B000602101308316B0006F211B
:10071C007008B000B101392170088312AD00710866
:10072C00AE0001308316B0006F217008B000B1012B
:10073C00392170088312CC007108CD00013083166A
:10074C00B0006F217008B000B1013921700883121C
:10075C00A4007108A50001308316B0006F21700849
:10076C00B000B101392170088312D9007108DA0088
:10077C0001308316B0006F217008B000B10139212F
:10078C0070088312A9007108AA0001308316B0000A
:10079C006F217008B000B101392170088312A700D5
:1007AC007108A80001308316B0006F217008B000EA
:1007BC00B10139217008A0007108A100382365210E
:1007CC00D130B000602101308316B0006F21382386
:0207DC00080013
:1007DE0083160313AC01AD016521D030B00060214A
:1007EE000F308316B000602138236521D130B00060
:1007FE00602101308316B0006F217008AC003823E1
:10080E002C192B2C6521D030B00060210E308316B0
:10081E00B000602138236521D130B0006021013055
:10082E008316B0006F217008AD0038236521D030DB
:10083E00B0006021E0308316B000602120308316B6
:0A084E002D04B000602138230800DB
:100858006521D030B00060218316B00160212D08D9
:100868008316B00083122E088316B100FF22700889
:10087800B00060214C088316B00083124D0883161F
:10088800B100FF227008B000602124088316B00070
:10089800831225088316B100FF227008B00060217A
:1008A80059088316B00083125A088316B100FF2234
:1008B8007008B000602129088316B00083122A0846
:1008C8008316B100FF227008B00060212708831644
:1008D800B000831228088316B100FF227008B00008
:1008E800602183162008B0002108B100FF2270089B
:0808F800B00060213823080064
:10090000831603132C08F4002D08F5002E08F600BA
:100910002F08F700F40DF50DF60DF70D7410F40D1A
:10092000F50DF60DF70D74100030F0001230F100E7
:100930007A30F2000030F30087210130F800F9012D
:10094000FA01FB017008F4007108F5007208F60066
:100950007308F7007808F4027908031C790FF50290
:100960007A08031C7A0FF6027B08031C7B0FF70240
:100970008316871507162830831294008316910179
:080980007408930094010800C3
:100988006521D030B000602111308316B00060219D
:1009980038236521D130B000602101308316B000C2
:1009A8006F217008A800B0016F217008A900080025
:1009B80068218A110A128000840AAA0A0319AB0A5C
:0809C800F003031DDC2C080004
:1009D0008316031386018812081388138312881262
:1009E00008133430FC00F130FD00FD0BF52CFC0B3E
:1009F000F52C0000000003308316B50048200320CA
:100A00001A30FC00F830FD00FD0B042DFC0B042D0A
:100A1000000003308316B500482003201A30FC0084
:100A2000F830FD00FD0B122DFC0B122D00000330E1
:100A30008316B500482003201A30FC00F830FD0072
:100A4000FD0B202DFC0B202D000002308316B5007D
:100A5000482003201A30FC00F830FD00FD0B2E2D3D
:100A6000FC0B2E2D000028308316B40019210C3009
:100A70008316B400192106308316B4001921013001
:080A80008316B40019210800DF
:100A880083120313F8010830FC00700DF80D740888
:100A9800F8020318512DF8070310F00DFC0B492D2F
:020AA800080044
:100B5800213084004E3083120313F0005530831681
:100B6800AA000530AB00DC24A03084000230F0007D
:100B7800A9308316AA000530AB00DC246F3084004E
:100B88000130F000AB308316AA000530AB00DC243E
:100B9800A23084000630F000A3308316AA00053086
:060BA800AB00DC24080094
:101000008A11AC258A158A11E8248A15A030831626
:10101000AC008630AD000130AE000030AF008A1168
:1010200080248A158A112C248A158A113B238A155B
:101030008316AC010130AD008A114A238A152F3086
:101040008316AC008A116E238A150130AC00013082
:10105000AD008A114A238A153F308316AC008A11ED
:101060006E238A151030FB003930FC000D30FD0076
:10107000FD0B3828FC0B3828FB0B3828000000003B
:101080008A113B238A158A117E238A150A30F400BF
:101090000030F50083122D08F0002E08F1008A11AF
:1010A00085208A157808F0007908F1007008AC00F6
:1010B0000A30F4000030F5002D08F0002E08F10091
:1010C0008A1185208A157008CF000A30F40000309C
:1010D000F5004C08F0004D08F1008A1185208A15B2
:1010E0007808F0007908F1007008D0000A30F400A8
:1010F0000030F5004C08F0004D08F1008A11852001
:101100008A157008CE000A30F4000030F50024087B
:10111000F0002508F1008A1185208A157808F00072
:101120007908F1007008A3000A30F4000030F500DF
:101130002408F0002508F1008A1185208A1570081E
:10114000A1000A30F4000030F5002908F0002A0858
:10115000F1008A1185208A157808F0007908F100DD
:101160007008A2000A30F4000030F5002908F000F1
:101170002A08F1008A1185208A157008AB000A3010
:10118000F4000030F5002708F0002808F1008A116B
:1011900085208A157808F0007908F1007008A6000B
:1011A0000A30F4000030F5002708F0002808F100AC
:1011B0008A1185208A1570088316A2000A30F4006F
:1011C0000030F5002008F0002108F1008A11852088
:1011D0008A157808F0007908F10070088316A300DA
:1011E0000A30F4000030F5002008F0002108F1007A
:1011F0008A1185208A157008EF008316AC01AD01B5
:101200008A114A238A15303021078316B0008A11CB
:101210002F238A15303023078316B0008A112F231D
:101220008A153A308316B0008A112F238A15303080
:101230004E078316B0008A112F238A1530305007CD
:101240008316B0008A112F238A153A308316B00016
:101250008A112F238A1530304F078316B0008A1168
:101260002F238A1530302C078316B0008A112F23C4
:101270008A158A11EF238A158A11C4248A150A3027
:10128000F4002808F0008A1144258A157008831696
:10129000A6000A30F4002808F0008A1144258A15B7
:1012A0007808F00070088316A7000630F0002908BF
:1012B000F100700803196029F10CF113FF3E5A295F
:1012C00083167108A9007108003A031D6A29A40158
:1012D000A5017F292908013A031D73290230A400C2
:1012E0000530A5007F292908023A031D7B29053016
:1012F000A400A5017F290730A4000530A500AC019A
:101300000930AD008A114A238A153030831626072A
:10131000B0008A112F238A15303083162707B000BA
:101320008A112F238A152E308316B0008A112F239D
:101330008A15303083162407B0008A112F238A15AE
:10134000303083162507B0008A112F238A15DF302D
:101350008316B0008A112F238A1543308316B000FC
:101360008A112F238A1501308316AC00AD018A1132
:101370004A238A1530302B078316B0008A112F2399
:101380008A15303022078316B0008A112F238A1560
:101390002D308316B0008A112F238A153030831622
:1013A0002207B0008A112F238A15303026078316B2
:1013B000B0008A112F238A152D308316B0008A11B0
:1013C0002F238A1530306F078316B0008A112F2320
:1013D0008A15303083162307B0008A112F238A150F
:1013E00020308316B0008A112F238A152D308316E2
:1013F000B0008A112F238A1520308316B0008A117D
:101400002F238A1500305A06031D082A0130590679
:10141000031D112A5B308316AC008A116E238A15D6
:10142000672A003083125A06031D182A0230590613
:10143000031D212A51308316AC008A116E238A15B0
:10144000672A003083125A06031D282A03305906E2
:10145000031D312A55308316AC008A116E238A157C
:10146000672A003083125A06031D382A04305906B1
:10147000031D412A67308316AC008A116E238A153A
:10148000672A003083125A06031D482A0530590680
:10149000031D512A6B308316AC008A116E238A1506
:1014A000672A003083125A06031D582A063059064F
:1014B000031D612A5F308316AC008A116E238A15E2
:1014C000672A83166330AC008A116E238A150630B2
:1014D000FB001330FC00AD30FD00FD0B6D2AFC0B52
:0E14E0006D2AFB0B6D2A000000004328762ABF
:020AAA00003416
:020AAC00003414
:020AAE00003412
:040AB0000C340034CE
:020AB40000340C
:040AB60008340034CC
:040ABA001B340034B5
:020ABE00003402
:020AC000003400
:040AC20000340034C8
:100AC6004434533433343234333431342034773489
:100AD600693474346834203450344934433400342F
:100AE6004434653476345A346F346E346534203485
:0A0AF600323430343234303400342E
:040B00003A3400344F
:020B04000034BB
:020B06000034B9
:020B08000034B7
:080B0A004D344F344E34003429
:080B120054345534453400341D
:040B1A00053400346A
:080B1E00533455344E34003409
:080B2600463452344934003416
:080B2E00533441345434003407
:080B3600573445344434003407
:080B3E005434483455340034EE
:020B4600003479
:020B4800003477
:020B4A00003475
:020B4C00003473
:020B4E00003471
:020B500000346F
:040B52001434003423
:020B5600003469
:02400E004A2F37
:00000001FF
