:02000000552B7E
:10000600710DF80DF90D7408F8027508031C750FCB
:10001600F902F00DF10D0F30FC00710DF80DF90D20
:100026007408701C1C28F8027508031C750FF90269
:100036002128F80775080318750FF907F00DF10D5B
:10004600FC0B102870182D287408F807750803187B
:08005600750FF9070000080016
:10005E00FF30831603138600831288120817881741
:10006E000630FC003030FD00FD0B3B28FC0B3B281E
:10007E0000008813861F4F2888170630FC0030308A
:10008E00FD00FD0B4828FC0B482800008813412872
:02009E00080058
:1000A00083160313860183123F0886008812081303
:1000B00088170630FC003030FD00FD0B5D28FC0B7E
:1000C0005D28000088130630FC003030FD00FD0B79
:0A00D0006728FC0B672800000800F9
:1000DA00831203137408003A031D7C287508003A3A
:1000EA00031D7C28FF30F0007F30F100D5288312F1
:1000FA000313FD01F901F8017108700403190034B2
:10010A0071087506FA00FA1BFD09FB01F51F922812
:10011A00F409F509F40A0319F50AF11F9928F009F7
:10012A00F109F00A0319F10A71087504FA00FA1BB9
:10013A00AE2803207B18C128FD1F0034F009F109FD
:10014A00F00A0319F10AF809F909F80A0319F90A70
:10015A000034F51FBD28F11BB9287108F900700891
:10016A00F800F101F001A128F101F001F00A0034D0
:10017A00F109F009FB0A9E28F80A0319F90A74081A
:10018A007802031DA12875087902031DA128F90127
:10019A00F801F00A0319F10AF11FA1280000FF343F
:0201AA0008004B
:1001AC002F208316860183120813081BDF28881260
:1001BC00E02888163E08403EBF00502088170630C5
:1001CC00FC003030FD00FD0BE928FC0BE928000099
:0401DC00881308007C
:1001E0002F208316860183120813081BF928881212
:1001F000FA2888163E08B83EBF00502088170630FF
:10020000FC003030FD00FD0B0329FC0B032900002E
:040210008813080047
:10021400831203133E08003A031D1329081688119C
:1002240019293E08013A031D1929081288150630B8
:10023400FC003030FD00FD0B1D29FC0B1D290000C6
:020244000800B0
:1002460083120313FB01FA01F9018030F800F10C67
:10025600F00C031C37297408F90775080318750F85
:10026600FA070318FB0A0310F01F3F297408FA0760
:1002760075080318750FFB07FB0CFA0CF90CF80C44
:10028600031C2A297B08F3007A08F2007908F1009A
:060296007808F0000800EA
:10029C0083120313BC01BD014030F4000030F500A3
:1002AC003A08F0003B08F1006D207008BC007108A2
:1002BC00BD007008BE000A210630F2003C08F000B8
:1002CC003D08F100720803197029F00DF10D701042
:1002DC00FF3E69297008BA02031CBB037108BB02FC
:0E02EC003808BE00F0203A08BE00D6200800F8
:1002FA0083160313860183123808860088160813AA
:10030A0088170630FC003030FD00FD0B8A29FC0BF3
:10031A008A29000088130630FC003030FD00FD0BEE
:0A032A009429FC0B94290000080040
:0E033400831203132E088A002D088200080091
:100342008312031335083B3C0318142A403035024C
:100352000318142A3408B800B9013508BA00BB01E1
:100362004E21B7013508403CF100F201031CF203B3
:100372008030F000803072067002031DC2297108BD
:1003820037020318E42920303602F000F101031C81
:10039200F1030530F4000030F50023213708F0079F
:1003A2000318F10A0030F00708300318013EF10784
:1003B2007008AD007108AE009A218A110A12B800C5
:1003C2007D21B70AB3293408B800B9014030BA0018
:1003D2000030BB004E213508403CB70005303702E3
:1003E2000318132A20303602F000F101031CF10336
:1003F2000530F4000030F50023213708F007031818
:10040200F10A0030F00708300318013EF1077008C6
:10041200AD007108AE009A218A110A12B8007D213E
:10042200B70AEF29402A3408B800B9013508BA00E2
:10043200BB014E21B701053037020318402A203094
:100442003602F000F101031CF1030530F400003024
:10045200F50023213708F0070318F10A0030F007EE
:1004620008300318013EF1077008AD007108AE00B4
:100472009A218A110A12B8007D21B70A1C2A0800A3
:1004820083120313B101083031020318A72A31087D
:10049200B800B901BA01BB014E21B20140303202AB
:1004A2000318752A0730F2003108F000F1017208D2
:1004B2000319602AF00DF10D7010FF3E592A32081F
:1004C200F0070318F10A2F08F00730080318013E5D
:1004D200F1077008AD007108AE009A218A110A1264
:1004E200B8007D21B20A4F2A3108B800B901403064
:1004F200BA000030BB004E214030B20080303202E0
:100502000318A52A0730F2003108F000F101720841
:100512000319902AF00DF10D7010FF3E892A32085E
:10052200F0070318F10A2F08F00730080318013EFC
:10053200F1077008AD007108AE009A218A110A1203
:0E054200B8007D21B20A7F2AB10A442A0800BF
:10055000831203133008B300B2013208310784005C
:100560000008003A0319C92A80303302031CBB2A51
:10057000B001B301AF0A2F08B4003308B500320848
:10058000310784000008B600A1210730B307B20A82
:04059000AD2A080088
:1005940083120313AF01B0018030F00080303006C5
:1005A4007002031DD72A2F08073C031CF72A2F08C3
:1005B400B8003008B900BA01BB014E21B101B20143
:1005C4008030F000803032067002031DEB2A3108BF
:1005D4003F3C031CF32AB8017D21B10A0319B20A76
:1005E400E22AAF0A0319B00ACE2AAF01B001803063
:1005F400F000803030067002031D022B2F08073CE8
:10060400031C242B2F08B8003008B9004030BA006E
:100614000030BB004E21B101B2018030F0008030C7
:1006240032067002031D182B31083F3C031C202B9B
:10063400B8017D21B10A0319B20A0F2BAF0A0319BD
:06064400B00AF92A0800CB
:10064A0083160313880183120816081A2E2B8811A1
:10065A002F2B88153430FC00F130FD00FD0B332BB5
:10066A00FC0B332B000000003E30BF005020B83096
:10067A00BF0050204030BF005020C030BF00502083
:08068A003F30BF0050200800C2
:100692009A218A110A128000840AAD0A0319AE0A4D
:0806A200F003031D492B0800C1
:1006AA00443083120313A0006530A1007630A20003
:1006BA005A30A3006F30A4006E30A5006530A60042
:1006CA002030A7003230A8003030A9003230AA000A
:1006DA003030AB00AC012523CA220130AF00B00193
:1006EA002030B100A8220B30FB002630FC005D3020
:1006FA00FD00FD0B7E2BFC0B7E2BFB0B7E2B0000E3
:10070A0000009A30AF000330B00041220B30FB00EA
:10071A002630FC005D30FD00FD0B912BFC0B912B6C
:0A072A00FB0B912B00000000992B3F
:100734000034003400340034003400340034003415
:100744000034003400340034003400340034003405
:1007540080348034003440344034403440344034B5
:1007640040344034403440344034403440344034E5
:100774004034403440344034403440344034003415
:100784000034203420342034003410341034103435
:100794000834083408340034043404340434003491
:1007A4000034023402340234023402340234023497
:1007B4000234023402340234023402340234023485
:1007C4000034043404340434043400340834083465
:1007D40008341034103410340034203420342034DD
:1007E40000340034403440344034403440344034E5
:1007F4004034403440344034403440344034403455
:100804004034403440344034003480348034003444
:100814000034003400340034003400340034003434
:100824000034003400340034003400340034003424
:100834000034003400340034003400340034003414
:100844000034003400340034C0343C340334013404
:1008540000340034003400340034003400340034F4
:1008640000340034003400340034003400340034E4
:1008740000340034003400340034003400340034D4
:1008840000340034003400340034003400340034C4
:1008940000340034003400340034003400340034B4
:1008A40000340034003400340034003400340034A4
:1008B4000034003400340034003400340034003494
:1008C4000034003400340034003400340034003484
:1008D4000034003400340034003400340034003474
:1008E4000034003400340034003400340034003464
:1008F4000034003400340034003400340034003454
:100904000034003400340034003400340034013442
:1009140003343C34C0340034003400340034003434
:100924000034003400340034003400340034003423
:100934000034003400340034003480344034203433
:1009440010340834043403340034003400340034E4
:1009540000340034003400340034003400340034F3
:1009640000340034003400340034003400340034E3
:1009740000340034003400340034003400340034D3
:1009840000340034003400340034003400340034C3
:1009940000340034003400340034003400340034B3
:1009A40000340034003400340034003400340034A3
:1009B4000034003400340034003400340034003493
:1009C4000034003400340034003400340034003483
:1009D4000034003400340034003400340034003473
:1009E4000034003400340034003400340034003463
:1009F4000034003400340034003400340034003453
:100A04000034003400340034003400340034003442
:100A1400003400340034013406340434083410340F
:100A24002034403480340034003400340034003442
:100A34000034E03418340634013400340034003413
:100A44000034003400340034003400340034003402
:100A540000340034003400340034003400340034F2
:100A640000340034003400340034003400340034E2
:100A740000340034003400340034003400340034D2
:100A840000340034003400340034003400340034C2
:100A940000340034003400340034003400340034B2
:100AA40000340034003400340034003400340034A2
:100AB4000034003400340034003400340034003492
:100AC4000034003400340034003400340034003482
:100AD4000034003400340034003400340034003472
:100AE4000034003400340034003400340034003462
:100AF4000034003400340034003400340034003452
:100B04000034003400340034003400340034003441
:100B14000034003400340034003400340034003431
:100B2400003400340034013406341834E034003422
:100B34000034073418346034803400340034003412
:100B44000034003400340034003400340034003401
:100B5400003400340034003400348034C034C034F1
:100B64008034003400340034003400340034003461
:100B740000340034003400340034003400340034D1
:100B840000340034003400340034003400340034C1
:100B940000340034003400340034003400340034B1
:100BA40000340034003400340034003400340034A1
:100BB4000034003400340034003400340034003491
:100BC4000034003400340034003400340034003481
:100BD4000034003400340034003400340034003471
:100BE4000034003400340034003400340034003461
:100BF4000034003400340034003400340034003451
:100C04000034003400340034003400340034003440
:100C14000034003400340034003400340034003430
:100C24000034003400348034603418340734003421
:100C34000034003400340034003401340234043409
:100C4400083410342034C034003400340034C03448
:100C54001034083408340C341F341F34FF34FF3488
:100C6400FF34FE34F834F834F834F034F034E0343B
:100C7400E034E034E034E034E034C0344034003470
:100C840000340034003400340034003400340034C0
:100C940000340034003400340034003400340034B0
:100CA40000340034003400340034003400340034A0
:100CB4000034003400340034003400340034003490
:100CC4000034003400340034003400340034003480
:100CD4000034003400340034003400340034003470
:100CE4000034003400340034003400340034003460
:100CF4000034003400340034003400340034003450
:100D0400003400340034003400340034003400343F
:100D14000034003400348034603420341034083417
:100D24000434023401340034003400340034003418
:100D3400003400340034003400340034003400340F
:100D4400003400340034003403343C34D834983450
:100D54008334C634CE34CE34DF345F345F347F34EE
:100D64003834303430343034B034D834DF34DF34D1
:100D7400EF34E334E134C134E134A03400340034DA
:100D8400003420342034003400340034003400347F
:100D940000340034003400340034003400340034AF
:100DA400003400340034003400340034003400349F
:100DB400003400340034003400340034003400348F
:100DC400003400340034003400340034003400347F
:100DD400003400340034003400340034003400346F
:100DE400003400340034003400340034003400345F
:100DF400003400340034003400340034003400344F
:100E040000340034003400340034003400348034BE
:100E1400C0343C340334003400340034003400342F
:100E2400003400340034003400340034003400341E
:100E3400003400340034003400340034003400340E
:100E440000340034003400340034003400340034FE
:100E540001340134013402340234023402340234E1
:100E640002340234023402340234023403340334CC
:100E740003340334033403340334033402340034BA
:100E840000340434043404340034083408340034A2
:100E9400103410341034003420342034203400341E
:100EA40000344034403440344034403440344034DE
:100EB400403440344034403440344034403440348E
:100EC40000340034203420342034003410341034FE
:100ED400103408340834083400340434043404343A
:100EE4000034003402340234023402340234023452
:100EF400023402340234023402340234023402343E
:100F04000234023402340234003401340134003433
:100F1400003400340034003400340034003400342D
:100F2400003400340034003400340034003400341D
:1010000000340034003400340034003400345F34E1
:10101000003400340034073400340734003414340E
:101020007F3414347F34143424342A347F342A3403
:10103000123423341334083464346234363449347B
:101040005534223450340034053403340034003431
:1010500000341C342234413400340034413422340E
:101060001C34003408342A341C342A34083408343C
:1010700008343E34083408340034503430340034FA
:101080000034083408340834083408340034303468
:101090003034003400342034103408340434023442
:1010A0003E345134493445343E34003442347F3484
:1010B00040340034423461345134493446342134AC
:1010C000413445344B3431341834143412347F34C1
:1010D0001034273445344534453439343C344A34AB
:1010E000493449343034013471340934053403341B
:1010F0003634493449344934363406344934493471
:1011000029341E340034363436340034003400348C
:101110005634363400340034003408341434223465
:101120004134143414341434143414344134223417
:101130001434083400340234013451340934063490
:1011400032344934793441343E347E3411341134EC
:1011500011347E347F3449344934493436343E3492
:1011600041344134413422347F34413441342234D7
:101170001C347F3449344934493441347F34093490
:101180000934013401343E34413441345134323471
:101190007F340834083408347F34003441347F34D9
:1011A000413400342034403441343F3401347F34FE
:1011B00008341434223441347F34403440344034D1
:1011C00040347F340234043402347F347F340434B6
:1011D000083410347F343E344134413441343E3499
:1011E0007F3409340934093406343E3441345134EF
:1011F00021345E347F34093419342934463446347A
:101200004934493449343134013401347F340134B0
:1012100001343F344034403440343F341F342034B0
:10122000403420341F347F342034183420347F3449
:101230006334143408341434633403340434783499
:101240000434033461345134493445344334003474
:1012500000347F34413441340234043408341034CF
:101260002034413441347F340034003404340234B7
:101270000134023404344034403440344034403487
:1012800000340134023404340034203454345434EF
:10129000543478347F344834443444343834383423
:1012A00044344434443420343834443444344834AA
:1012B0007F343834543454345434183408347E343D
:1012C00009340134023408341434543454343C3472
:1012D0007F340834043404347834003444347D34A6
:1012E000403400342034403444343D34003400343D
:1012F0007F34103428344434003441347F34403453
:1013000000347C3404341834043478347C340834A5
:101310000434043478343834443444344434383471
:101320007C3414341434143408340834143414342D
:1013300018347C347C34083404340434083448349D
:10134000543454345434203404343F34443440341A
:1013500020343C344034403420347C341C34203439
:10136000403420341C343C344034303440343C3439
:10137000443428341034283444340C345034503439
:1013800050343C344434643454344C3444340034A5
:101390000834363441340034003400347F340034AF
:0C13A0000034003441343634083400348A
:02400E004A2F37
:00000001FF
