:02000000722D5F
:10000600710DF80DF90D7408F8027508031C750FCB
:10001600F902F00DF10D0F30FC00710DF80DF90D20
:100026007408701C1C28F8027508031C750FF90269
:100036002128F80775080318750FF907F00DF10D5B
:10004600FC0B102870182D287408F807750803187B
:08005600750FF9070000080016
:10005E00FF308316031388008312071187150716C6
:10006E000630FC003030FD00FD0B3B28FC0B3B281E
:10007E0000000712881F4F2807160630FC0030308C
:10008E00FD00FD0B4828FC0B4828000007124128F4
:02009E00080058
:1000A00083160313880183124408880007118711FF
:1000B00007160630FC003030FD00FD0B5D28FC0B00
:1000C0005D28000007120630FC003030FD00FD0BFB
:0A00D0006728FC0B672800000800F9
:1000DA00831203134308003A031D76288714071076
:1000EA007C284308013A031D7C2887100714063030
:1000FA00FC003030FD00FD0B8028FC0B802800003E
:02010A000800EB
:10010C002F20831688018312871187198F280711D6
:10011C00902807154308B83EC40050200716063037
:10012C00FC003030FD00FD0B9928FC0B99280000D9
:04013C00071208009E
:100140002F2083168801831287118719A928071188
:10015000AA2807154308403EC40050200716063061
:10016000FC003030FD00FD0BB328FC0BB328000071
:04017000071208006A
:10017400831203137408003A031DC9287508003A52
:10018400031DC928FF30F0007F30F10022298312BB
:100194000313FD01F901F801710870040319003417
:1001A40071087506FA00FA1BFD09FB01F51FDF282B
:1001B400F409F509F40A0319F50AF11FE628F00910
:1001C400F109F00A0319F10A71087504FA00FA1B1F
:1001D400FB2803207B180E29FD1F0034F009F109C8
:1001E400F00A0319F10AF809F909F80A0319F90AD6
:1001F4000034F51F0A29F11B06297108F90070085B
:10020400F800F101F001EE28F101F001F00A0034E8
:10021400F109F009FB0AEB28F80A0319F90A740832
:100224007802031DEE2875087902031DEE28F901F2
:10023400F801F00A0319F10AF11FEE280000FF3457
:020244000800B0
:1002460083120313FB01FA01F9018030F800F10C67
:10025600F00C031C37297408F90775080318750F85
:10026600FA070318FB0A0310F01F3F297408FA0760
:1002760075080318750FFB07FB0CFA0CF90CF80C44
:10028600031C2A297B08F3007A08F2007908F1009A
:060296007808F0000800EA
:0E029C008312031322088A0021088200080042
:1002AA0083160313880183123D08880007158711F6
:1002BA0007160630FC003030FD00FD0B6229FC0BEE
:1002CA006229000007120630FC003030FD00FD0BE9
:0A02DA006C29FC0B6C2900000800E1
:1002E400FB09FA09F909F809F80A0319F90A0319C3
:0802F400FA0A0319FB0A0800D5
:1002FC007408F8027508031C750FF9027608031CC4
:10030C00760FFA027708031C770FFB02F30D073008
:10031C00FC00730DF80DF90DFA0DFB0D7408731C30
:10032C00A529F8027508031C750FF9027608031C41
:10033C00760FFA027708031C770FFB02B229F80735
:10034C0075080318750FF90776080318760FFA0766
:10035C0077080318770FFB07F30DFC0B8F29720D31
:10036C00F80DF90DFA0DFB0D7408731CCB29F8026E
:10037C007508031C750FF9027608031C760FFA0238
:10038C007708031C770FFB02D829F80775080318A8
:10039C00750FF90776080318760FFA077708031814
:1003AC00770FFB07F20D0730FC00720DF80DF90DFD
:1003BC00FA0DFB0D7408721CF129F8027508031C68
:1003CC00750FF9027608031C760FFA027708031CE6
:1003DC00770FFB02FE29F80775080318750FF9074C
:1003EC0076080318760FFA0777080318770FFB07C0
:1003FC00F20DFC0BDB29710DF80DF90DFA0DFB0D4F
:10040C007408721C172AF8027508031C750FF90280
:10041C007608031C760FFA027708031C770FFB0291
:10042C00242AF80775080318750FF90776080318BE
:10043C00760FFA0777080318770FFB07F10D0730D3
:10044C00FC00710DF80DF90DFA0DFB0D7408711C03
:10045C003D2AF8027508031C750FF9027608031C77
:10046C00760FFA027708031C770FFB024A2AF8076B
:10047C0075080318750FF90776080318760FFA0735
:10048C0077080318770FFB07F10DFC0B272A700D6B
:10049C00F80DF90DFA0DFB0D7408711C632AF802A6
:1004AC007508031C750FF9027608031C760FFA0207
:1004BC007708031C770FFB02702AF80775080318DE
:1004CC00750FF90776080318760FFA0777080318E3
:1004DC00770FFB07F00D0730FC00700DF80DF90DD0
:1004EC00FA0DFB0D7408701C892AF8027508031CA0
:1004FC00750FF9027608031C760FFA027708031CB5
:10050C00770FFB02962AF80775080318750FF90781
:10051C0076080318760FFA0777080318770FFB078E
:10052C00F00DFC0B732A7018A92A7408F8077508CB
:10053C000318750FF90776080318760FFA07770872
:08054C000318770FFB070800FC
:1005540083120313C101C2014030F4000030F500DE
:100564003F08F0004008F100BA207008C10071088B
:10057400C2007008C3006D200630F2004108F0008C
:100584004208F10072080319CC2AF00DF10D701025
:10059400FF3EC52A7008BF02031CC0037108C002D5
:0E05A4003D08C30086203F08C300A0200800C9
:1005B200831203133A083B3C03184C2B40303A0297
:1005C20003184C2B3908BD00BE013A08BF00C00118
:1005D200AA22BC013A08403CF100F201031CF203DA
:1005E2008030F000803072067002031DFA2A710812
:1005F2003C0203181C2B20303B02F000F101031CCB
:10060200F1030530F4000030F50023213C08F00727
:100612000318F10AA630F00705300318013EF1076E
:100622007008A1007108A2004E218A110A12BD00B1
:100632005521BC0AEB2A3908BD00BE014030BF007B
:100642000030C000AA223A08403CBC0005303C02FF
:1006520003184B2B20303B02F000F101031CF10385
:100662000530F4000030F50023213C08F0070318A0
:10067200F10AA630F00705300318013EF1077008B1
:10068200A1007108A2004E218A110A12BD00552153
:10069200BC0A272B782B3908BD00BE013A08BF00DF
:1006A200C001AA22BC0105303C020318782B20307D
:1006B2003B02F000F101031CF1030530F4000030AD
:1006C200F50023213C08F0070318F10AA630F007D1
:1006D20005300318013EF1077008A1007108A2005D
:1006E2004E218A110A12BD005521BC0A542B080062
:1006F200831203130C1A7E2B792B390899000800F8
:10070200831203137408003A031D9C2B7508003AE8
:10071200031D9C2B7608003A031D9C2B7708003A98
:10072200031D9C2BFF30F000FF30F100FF30F20080
:100732007F30F300352C83120313FC01F71BFC0AF4
:10074200FD01FB01FA01F901F80173087204710459
:1007520070040319302C73087706A000A01BFD0952
:10076200F71FBE2BF409F509F609F709F40A031974
:10077200F50A0319F60A0319F70AF31FCB2BF0093E
:10078200F109F209F309F00A0319F10A0319F20A4D
:100792000319F30A73087704A000A01BEC2B7E2137
:1007A200FC1B092CFD1F302CF009F109F209F30999
:1007B200F00A0319F10A0319F20A0319F30AF809F4
:1007C200F909FA09FB09F80A0319F90A0319FA0ADD
:1007D2000319FB0A302CF71F032CF31BFD2B7308A4
:1007E200FB007208FA007108F9007008F800F301C2
:1007F200F201F101F001D32BF301F201F101F00159
:10080200F00A0034F309F209F109F009FC17D02BC0
:10081200F80A0319F90A0319FA0A0319FB0A7408F8
:100822007802031DD32B75087902031DD32B76089A
:100832007A02031DD32B77087B02031DD32BFB0106
:10084200FA01F901F801F00A0319F10A0319F20A8F
:100852000319F30AF31FD32BA0012016FF34A001C2
:0A0862007C1C342C7221003E0800BB
:10086C0083120313981C3C2C181218168C1A3F2C4C
:08087C003C2C1A08F0000800F2
:10088400831203133408840000080319502C34081D
:0E08940084000008B9007923B40A422C080041
:1008A200831203133408F2007208F000F20A70088F
:1008B2008400000803195E2C552C34087202F000E3
:0C08C2000130F002F101031CF1030800FA
:1008CE00831203133508B800B701370836078400C2
:1008DE000008003A0319882C80303802031C7A2C49
:1008EE00B501B801B40A3408B9003808BA0037089F
:1008FE00360784000008BB00D9220730B807B70AB4
:04090E006C2C080045
:1009120083120313B50135083407B60036243608AE
:10092200840070088000350834078400B50A000886
:10093200403A031D8C2C01303502F000F101031CFA
:0C094200F10370083407840080010800F5
:10094E0083120313B401B5018030F00080303506F8
:10095E007002031DB42C3408073C031CD42C34083D
:10096E00BD003508BE00BF01C001AA22B601B70105
:10097E008030F000803037067002031DC82C360818
:10098E003F3C031CD02CBD015521B60A0319B70AF2
:10099E00BF2CB40A0319B50AAB2CB401B5018030D3
:1009AE00F000803035067002031DDF2C3408073C42
:1009BE00031C012D3408BD003508BE004030BF00B9
:1009CE000030C000AA22B601B7018030F00080309E
:1009DE0037067002031DF52C36083F3C031CFD2C18
:1009EE00BD015521B60A0319B70AEC2CB40A031936
:0609FE00B50AD62C08002A
:100A04008316031387018312871487180B2D07108D
:100A14000C2D07143430FC00F130FD00FD0B102DBB
:100A2400FC0B102D000000003E30C4005020B830F4
:100A3400C40050204030C4005020C030C4005020B6
:080A44003F30C40050200800FF
:100A4C008312031334087A3C031C312D61303402B9
:0C0A5C00031C312DB4123408F000080017
:100A6800831203133408F4003508F500F601F70182
:100A78002030F000A130F1000730F2000030F30020
:100A880081230130F800F901FA01FB017008F40034
:100A98007108F5007208F6007308F7007808F40288
:100AA8007908031C790FF5027A08031C7A0FF602FD
:100AB8007B08031C7B0FF70283160713871718158B
:100AC80074089900181283129817831698168312BF
:0C0AD80018168316181383121813080058
:100AE40083120313B2010225A7248030B4002530F9
:100AF400B50034252330B4008924B401B501233072
:100B0400B6006724B2012330B40051248030F200CF
:100B1400803071067202031D912D70083202031891
:100B2400A12D3208233EB300330884000008B4002A
:100B340026253308840070088000B20A852D2330EE
:080B4400B40042247C2DA52D14
:100B4C0000340034003400340034003400345F349A
:100B5C0000340034003407340034073400341434C7
:100B6C007F3414347F34143424342A347F342A34BC
:100B7C001234233413340834643462343634493434
:100B8C0055342234503400340534033400340034EA
:100B9C0000341C34223441340034003441342234C7
:100BAC001C34003408342A341C342A3408340834F5
:100BBC0008343E34083408340034503430340034B3
:100BCC000034083408340834083408340034303421
:100BDC0030340034003420341034083404340234FB
:100BEC003E345134493445343E34003442347F343D
:100BFC004034003442346134513449344634213465
:100C0C00413445344B3431341834143412347F3479
:100C1C001034273445344534453439343C344A3463
:100C2C0049344934303401347134093405340334D3
:100C3C003634493449344934363406344934493429
:100C4C0029341E3400343634363400340034003445
:100C5C00563436340034003400340834143422341E
:100C6C0041341434143414341434143441342234D0
:100C7C001434083400340234013451340934063449
:100C8C0032344934793441343E347E3411341134A5
:100C9C0011347E347F3449344934493436343E344B
:100CAC0041344134413422347F3441344134223490
:100CBC001C347F3449344934493441347F34093449
:100CCC000934013401343E3441344134513432342A
:100CDC007F340834083408347F34003441347F3492
:100CEC00413400342034403441343F3401347F34B7
:100CFC0008341434223441347F344034403440348A
:100D0C0040347F340234043402347F347F3404346E
:100D1C00083410347F343E344134413441343E3451
:100D2C007F3409340934093406343E3441345134A7
:100D3C0021345E347F340934193429344634463432
:100D4C004934493449343134013401347F34013469
:100D5C0001343F344034403440343F341F34203469
:100D6C00403420341F347F342034183420347F3402
:100D7C006334143408341434633403340434783452
:100D8C00043403346134513449344534433400342D
:100D9C0000347F3441344134023404340834103488
:100DAC002034413441347F34003400340434023470
:100DBC000134023404344034403440344034403440
:100DCC0000340134023404340034203454345434A8
:100DDC00543478347F3448344434443438343834DC
:100DEC004434443444342034383444344434483463
:100DFC007F343834543454345434183408347E34F6
:100E0C0009340134023408341434543454343C342A
:100E1C007F340834043404347834003444347D345E
:100E2C00403400342034403444343D3400340034F5
:100E3C007F34103428344434003441347F3440340B
:100E4C0000347C3404341834043478347C3408345E
:100E5C00043404347834383444344434443438342A
:100E6C007C341434143414340834083414341434E6
:100E7C0018347C347C340834043404340834483456
:100E8C00543454345434203404343F3444344034D3
:100E9C0020343C344034403420347C341C342034F2
:100EAC00403420341C343C344034303440343C34F2
:100EBC00443428341034283444340C3450345034F2
:100ECC0050343C344434643454344C34443400345E
:100EDC000834363441340034003400347F34003468
:0C0EEC0000340034413436340834003443
:02400E004A2F37
:00000001FF
