:02000000362B9D
:0E000600F201F101F001F801F30100300800F1
:100014007B15FB1F14280130F300F201F101F001FC
:08002400FA0DF20CFF30080098
:08002C00FA1FF2130030080076
:10003400FB14FB1F2428FF30F300F200F100F00052
:08004400FA0DF20CFF30080078
:10004C00A0017208031D3B287108F2007008F10032
:10005C00F001A0157208031D3B287108F200F10194
:10006C00A01120167208031949282008F302031D59
:10007C00031C4D280310F21B5128F00DF10DF20D4D
:10008C00F30B41284D280130FC000320542802308A
:0E009C00FC000A2054280430FC001620080046
:1000AA007C188B28FC185C287C19AA285528A001E2
:1000BA007208031D7C287108F2007008F1007808A4
:1000CA00F000F801A0157208031D7C287108F200DF
:1000DA007008F100F001A01120167208031D7C2897
:1000EA007108F200F101A015720803199E28200870
:1000FA00F302031D031CA2280310F21B8B28F80D20
:10010A00F00DF10DF20DF30B8228A2287B1B701C57
:10011A00A628F81FA628F00A0319F10A0319F20AF9
:10012A00031DA628F20CF10CF00CF30A0319AA28F5
:10013A00A6280130FC000320AD280230FC000A206A
:10014A00AD280430FC001620AD280830FC001A2027
:04015A000000080099
:10015E008312031372087606A000F801F9017308E2
:10016E007702031CD2287708FD007308F7007D087C
:10017E00F3007608FD007208F6007D08F20075089F
:10018E00FD007108F5007D08F1007408FD0070088F
:10019E00F4007D08F000770803194B297208FA0065
:1001AE00F217F61777087302F700031905290830BE
:1001BE007702031CFB28F7007408F9007508F40099
:1001CE007608F500F60108307702031CFB28F700CD
:1001DE007408F9007508F400F50108307702031C65
:1001EE00FB287A08F2004B2977080319052903101A
:1001FE00F60CF50CF40CF90CF70BFE28A01F1229C7
:10020E00F909F409F509F609F90A0319F40A0319AB
:10021E00F50A0319F60A7908F80774080318740F1B
:10022E00F00775080318750FF10776080318760F97
:10023E00F207A01B2B29031C3B29F20CF10CF00C2E
:10024E00F80CF30F3B29472903183F29F809F00949
:10025E00F109F209F80A0319F00A0319F10A031950
:10026E00F20A8030FA0643290130FC0055204D2950
:10027E000230FC0055204D290430FC0026204D296B
:10028E000830FC001A204D290030FC000000080048
:06029E00FB15FF30080013
:1002A40083120313FB017308031D77080319A9299B
:1002B40072087606FA007708F3077E30031C662975
:1002C400F3020318AC296929F302031CAF2972084D
:1002D400F8007108FC007008FD00F817F617031009
:1002E400F201F101F0011830A0007D1C832974088B
:1002F400F00775080318750FF10776080318760FD1
:10030400F207F20CF10CF00CF80CFC0CFD0C0310D1
:10031400A00B7729F21B9329F80DF00DF10DF20DC6
:10032400F3037B1B701CA529F81FA529F00A0319E8
:10033400F10A0319F20A031DA529F20CF10CF00CC1
:10034400F30A0319AC29FA1FF2130030B129013062
:100354000320B12902301A20B12904300A200000F8
:0203640008008F
:10036600831203137408003A031DCE297508003A58
:10037600031DCE297608003A031DCE297708003AD8
:10038600031DCE29FF30F000FF30F1007F30F20070
:10039600FF30F300692A83120313770803195D2AD5
:1003A60073080319602A720876068039FA00F21774
:1003B600F617A0017208F8007108FC007008FD002D
:1003C6007408FD027508031C750FFC027608031CF1
:1003D600760FF802F801FC01FD01031CF929031050
:1003E600F20CF10CF00CF80C0130A0007708F302C7
:1003F600031C032A7E302007F3070318632A082A02
:100406007E302007F307031C662A1830FA07FD0D15
:10041600FC0DF80DF00DF10DF20DA00D7408F002B3
:100426007508031C750FF1027608031C760FF2029D
:10043600760DA004201C212A7D142C2A7408F007AE
:1004460075080318750FF10776080318760AF20780
:100456007D10FA031F307A05031D0A2A7B1B7D1CBB
:10046600532A0310F00DF10DF20DA00D7408F002E1
:100476007508031C750FF1027608031C760FF2024D
:10048600760D20040139FD070318FC0A0319F80A42
:10049600031D532AF80CFC0CFD0CF30A0319632AFE
:1004A600FA1FF8137808F2007C08F1007D08F000C6
:1004B6000030682A01304F21682A02300320682A5A
:0E04C60004301A20682A08300A2000000800BE
:0C04D400831203138030F606AF200800EE
:1004E0007B14FB1F7B2AF201FA1FFF30F200F100A0
:0A04F000F000FA0DF20CFF300800D6
:1004FA0083120313FB01FC01FA0173080319AA2AE8
:10050A00FA13F2178630F302F31B8E2A03198E2A86
:10051A00AC2AF309F30A08307302031C9B2AF3007E
:10052A00F20DF2017308031D0310A22A73080319BE
:10053A00A22A0310F20CF30B9E2A7B1B721CAA2A16
:10054A00031CAA2AF20A0319B12AF101B42A7B145C
:10055A00FB1FB72AF101B72A0130FC00B92A003083
:10056A00FC00B92AFF30FC00FC080319BD2A7022DE
:06057A007208F000080009
:0E0580008312031322088A002108820008005B
:10058E00003083120313F0000030F1000030F2004F
:10059E008530F3002908F4002A08F5002B08F60030
:1005AE002C08F70052217008F4007108F50072084B
:1005BE00F6007308F7000030F0002430F1007430BC
:1005CE00F2009530F300B3210030F4000030F50056
:0C05DE000030F6007F30F7006A220800B1
:1005EA00003083120313A9004030AA001C30AB006C
:1005FA008B30AC00C7227D227008831692008312CA
:0C060A0097151715121592141210080015
:100616000230831203132705F0007018142B97126B
:10062600152B971601302705F00070181C2B171292
:100636001D2B17162708F0002808F100F10CF00C06
:0E064600F113F10CF00CF11370089500080090
:10065400C0228A110A128000840AA10A0319A20A7C
:08066400F003031D2A2B08001E
:10066C0083120313A301A4010530A5000030A600DA
:10067C0083168701FF308800F522081A6A2B343064
:10068C00FC00F130FD00FD0B492BFC0B492B00004D
:10069C00000025082307F10024080318013E260753
:1006AC00F2007108A3007208A4008030F0008030C2
:1006BC0072067002031D642B7108643C03186A2BCC
:1006CC006430A3000030A400881A8F2B3430FC0057
:1006DC00F130FD00FD0B702BFC0B702B00000000AB
:1006EC0025082302F1002608031C013E2402F20017
:1006FC007108A3007208A40080307206F0008030EC
:10070C007002031D8B2B0030710203188F2BA30179
:10071C00A4012308A7002408A8000B238230FC00A6
:10072C00DD30FD00FD0B982BFC0B982B000000001E
:04073C00432B9F2B81
:02400E004A2F37
:00000001FF
