:02000000232BB0
:100006007B15FB1F0D280130F300F201F101F00111
:08001600FA0DF20CFF300800A6
:0E001E00F201F101F001F801F30100300800D9
:08002C00FA1FF2130030080076
:10003400FB14FB1F2428FF30F300F200F100F00052
:08004400FA0DF20CFF30080078
:10004C00A0017208031D3B287108F2007008F10032
:10005C00F001A0157208031D3B287108F200F10194
:10006C00A01120167208031949282008F302031D59
:10007C00031C4D280310F21B5128F00DF10DF20D4D
:10008C00F30B41284D280130FC000F20542802307E
:0E009C00FC00032054280430FC00162008004D
:1000AA007C188B28FC185C287C19AA285528A001E2
:1000BA007208031D7C287108F2007008F1007808A4
:1000CA00F000F801A0157208031D7C287108F200DF
:1000DA007008F100F001A01120167208031D7C2897
:1000EA007108F200F101A015720803199E28200870
:1000FA00F302031D031CA2280310F21B8B28F80D20
:10010A00F00DF10DF20DF30B8228A2287B1B701C57
:10011A00A628F81FA628F00A0319F10A0319F20AF9
:10012A00031DA628F20CF10CF00CF30A0319AA28F5
:10013A00A6280130FC000F20AD280230FC00032065
:10014A00AD280430FC001620AD280830FC001A2027
:04015A000000080099
:06015E00FB15FF30080054
:100164008312031372087606A000F801F9017308DC
:100174007702031CD5287708FD007308F7007D0873
:10018400F3007608FD007208F6007D08F200750899
:10019400FD007108F5007D08F1007408FD00700889
:1001A400F4007D08F000770803194E297208FA005C
:1001B400F217F61777087302F700031908290830B5
:1001C4007702031CFE28F7007408F9007508F40090
:1001D4007608F500F60108307702031CFE28F700C4
:1001E4007408F9007508F400F50108307702031C5F
:1001F400FE287A08F2004E2977080319082903100B
:10020400F60CF50CF40CF90CF70B0129A01F1529B9
:10021400F909F409F509F609F90A0319F40A0319A5
:10022400F50A0319F60A7908F80774080318740F15
:10023400F00775080318750FF10776080318760F91
:10024400F207A01B2E29031C3E29F20CF10CF00C22
:10025400F80CF30F3E294A2903184229F809F0093A
:10026400F109F209F80A0319F00A0319F10A03194A
:10027400F20A8030FA0646290130FC005520502944
:100284000230FC00552050290430FC00262050295F
:100294000830FC001A2050290030FC00000008003F
:1002A400831203137408003A031D6D297508003A7C
:1002B400031D6D297608003A031D6D297708003A5D
:1002C400031D6D29FF30F000FF30F1007F30F20094
:1002D400FF30F300082A8312031377080319FC295B
:1002E40073080319FF29720876068039FA00F21799
:1002F400F617A0017208F8007108FC007008FD00F0
:100304007408FD027508031C750FFC027608031CB3
:10031400760FF802F801FC01FD01031C9829031073
:10032400F20CF10CF00CF80C0130A0007708F30289
:10033400031CA2297E302007F3070318022AA729E9
:100344007E302007F307031C052A1830FA07FD0D39
:10035400FC0DF80DF00DF10DF20DA00D7408F00276
:100364007508031C750FF1027608031C760FF20260
:10037400760DA004201CC0297D14CB297408F00735
:1003840075080318750FF10776080318760AF20743
:100394007D10FA031F307A05031DA9297B1B7D1CE0
:1003A400F2290310F00DF10DF20DA00D7408F00206
:1003B4007508031C750FF1027608031C760FF20210
:1003C400760D20040139FD070318FC0A0319F80A05
:1003D400031DF229F80CFC0CFD0CF30A0319022A84
:1003E400FA1FF8137808F2007C08F1007D08F00089
:1003F4000030072A0130AF20072A02300F20072AD5
:0E04040004301A20072A0830032000000800E8
:100412007B14FB1F142AF201FA1FFF30F200F100D5
:0A042200F000FA0DF20CFF300800A4
:0C042C00831203138030F606B220080093
:1004380083120313FB017308031D77080319732A3A
:1004480072087606FA007708F3077E30031C302A14
:10045800F3020318762A332AF302031C792A720856
:10046800F8007108FC007008FD00F817F617031073
:10047800F201F101F0011830A0007D1C4D2A74082A
:10048800F00775080318750FF10776080318760F3B
:10049800F207F20CF10CF00CF80CFC0CFD0C03103C
:1004A800A00B412AF21B5D2AF80DF00DF10DF20D9B
:1004B800F3037B1B701C6F2AF81F6F2AF00A0319BD
:1004C800F10A0319F20A031D6F2AF20CF10CF00C61
:1004D800F30A0319762AFA1FF21300307B2A013037
:1004E8000F207B2A02301A207B2A043003200000C8
:0204F8000800FA
:1004FA0083120313FB01FC01FA0173080319AA2AE8
:10050A00FA13F2178630F302F31B8E2A03198E2A86
:10051A00AC2AF309F30A08307302031C9B2AF3007E
:10052A00F20DF2017308031D0310A22A73080319BE
:10053A00A22A0310F20CF30B9E2A7B1B721CAA2A16
:10054A00031CAA2AF20A0319B12AF101B42A7B145C
:10055A00FB1FB72AF101B72A0130FC00B92A003083
:10056A00FC00B92AFF30FC00FC080319BD2A092245
:06057A007208F000080009
:10058000003083120313F0000030F1000030F2005D
:100590008530F3002508F4002608F5002708F6004A
:1005A0002808F7001C227008F4007108F500720892
:1005B000F6007308F7000030F0002430F1007430CA
:1005C000F2009530F30052210030F4000030F500C5
:0C05D0000030F6007F30F7001622080013
:1005DC000230831203132305F0007018F72A9712C8
:1005EC00F82A971601302305F0007018FF2A17120D
:1005FC00002B17162308F0002408F100F10CF00C66
:0E060C00F113F10CF00CF113700895000800CA
:10061A00003083120313A5004030A6001C30A70047
:10062A008B30A800C0227D227008831692008312A4
:0C063A00971517151215921412100800E5
:100646008316031387010D235430A3000030A40042
:04065600EE222C2B39
:02400E004A2F37
:00000001FF
