:0200000049288D
:10000600023083120313FC004930FD00FD0B092862
:0A001600FC0B0928000000000800A0
:1000200083120313A7012308F1000130F0007108C7
:1000300003191E28F00D7010FF3E18287008A60046
:100040002208840070080005F10071080130031DCA
:100050000030F0002508F006031946282408003C6B
:100060000318362803200320A4032E282208840026
:1000700026080005F10071080130031D0030F00072
:100080002508F00603194628FF30A7002708F000CE
:02009000080066
:10009200F0308316031388008312081088100811A9
:1000A20088110830A2000730A3000A30A400A5017D
:1000B2001020700803195F280F3088065228602824
:02400E004A2F37
:00000001FF
