:0200000069286D
:0E0006008312031369088A006808820008004C
:10001400831203136D0899000C1A11280E288316F5
:080024009818152811280800A6
:10002C00831603130713871718153330990018120A
:10003C0083129817831698168312181683161813A2
:10004C00831218138B170B1783168C160C160800BB
:10005C0083120313981C3428181218168C1A37287C
:08006C0034281A08F000080016
:1000740003208A110A128000840AE80A0319E90A93
:08008400F003031D3A280800F7
:10008C00831203136C0884000008031955286C08AC
:10009C0084000008ED000A208312EC0A46280800B0
:1000AC000D308312031399000430FB000C30FC005C
:1000BC003330FD00FD0B6028FC0B6028FB0B602827
:0600CC0000000000080026
:1000D2003C2183120313EA01EB018316861183127A
:1000E20086118316061283120612162020308312FE
:1000F200EC0046205620A030EC0046205620B730B7
:10010200EC00462056202E207008EA00EB01003059
:100112006B06031D8E2801306A06031D962886157C
:100122005F30EC0046205620BF2800306B06031DCE
:100132009C2800306A06031DA42886114030EC007A
:1001420046205620BF2800306B06031DAA28033024
:100152006A06031DB22806164B30EC0046205620D4
:10016200BF2800306B06031DB82804306A06031D41
:10017200BF2806125530EC00462056208428C0289D
:10027800203084003F3083120313F000C630E800BA
:100288000030E9003A20A03084002E300313F0003B
:100298000530E8000130E9003A205F308400093079
:1002A8000313F0003330E8000130E9003A20080079
:10018C0042346C347534653474346F346F34743475
:10019C006834203449346E346934743469346134CD
:1001AC006C3469347A3465346434203461346E349C
:1001BC00643420345234653461346434793400341A
:1001CC004C34653464342034313420344F34463468
:0601DC004634203400341B
:1001E2004C34653464342034323420344F344E3449
:0401F2002034003481
:1001F6004C34653464342034323420344F3446343D
:040206004634003446
:10020A0050347234653473347334203431342034C6
:10021A0074346F3420347434753472346E34203448
:0E022A006F346E3420344C3445344434003488
:100238005034723465347334733420343034203499
:1002480074346F3420347434753472346E3420341A
:0E0258006F346E3420344C344534443400345A
:100266004C34653464342034313420344F344E34C5
:02027600003452
:02400E004A2F37
:00000001FF
