:020000001E29B7
:0C000600000000000000000000000800E6
:10001200243083120313FC00B530FD00FD0B0F28C2
:0A002200FC0B0F280000000008008E
:0E002C00533083120313FD00FD0B1A28080049
:10003A0083120313A71B2328861324288617271B3A
:10004A002828061329280617A71A2D2886122E28CB
:10005A008616271A32280612332806162218372837
:10006A00061438280610861403208610A7193F287C
:10007A008613402886172719442806134528061789
:10008A00A718492886124A28861627184E280612C3
:10009A004F280616221853280614542806108614C8
:1000AA0003208610221C5B2809205C2816200800E1
:1000BA008312031322102608A7001D202214080009
:0E00CA008312031321088A0020088200080018
:1000D80065208A110A128000840AA00A0319A10A5D
:0800E800F003031D6C28080061
:0E00F0003030831203132407A6005D200800A1
:1000FE0083120313A401F0308316880083120810B4
:10010E00081A8B280A30A400881A8F280730A400FA
:10011E00081B93280430A400881B97280130A400E4
:10012E0008148810081A9C28A401881AA0280830E0
:10013E00A400081BA4280530A400881BA8280230A0
:10014E00A40088140811081AAE280B30A400881ACF
:10015E00B2280930A400081BB6280630A400881B5C
:10016E00BA280330A40008158811081AC0280C30CC
:10017E00A400881AC4280D30A400081BC8280E300D
:10018E00A400881BCC280F30A40088152408F0008A
:02019E00080057
:1001A0008316031386100610061286120613861392
:1001B0008312861006108613061386120612092073
:1001C00009200920861606168614032086100920A9
:1001D0008614032086100920861403208610092027
:1001E0000612861403208610092086140320861028
:1001F0008612861786140320861009208613061699
:100200008614032086100612861403208610092007
:1002100086140320861006168614032086100920F3
:1002200006128614032086108617061786160616F1
:0C02300086140320861009202214080008
:10023C0083120313A301D0207F207008A300700841
:10024C0003194C2923080A3A031D2F290130A70052
:10025C001D202308A400A50178200330FB008A3060
:10026C00FC005530FD00FD0B3929FC0B3929FB0B2B
:10027C003929000000000630A7001D200730FC00C3
:10028C007D30FD00FD0B4829FC0B482922294D2906
:02400E004A2F37
:00000001FF
