:02000000552F7A
:100006008312031388171430FC007930FD00FD0BB2
:100016000A28FC0B0A280000000088130230FB00A7
:100026004530FC00A930FD00FD0B1728FC0B1728F6
:0A003600FB0B172800000000080073
:0E0040008312031326088A0025088200080098
:10004E000130831203134905F00070183028061290
:10005E00312806164908F000F00CF0130130F005B7
:10006E0070183B2886123C2886164908F000F00CC2
:10007E00F013F00CF0130130F00570184828061339
:10008E00492806174908F000F00CF013F00CF01395
:10009E00F00CF0130130F00570185728861358280D
:0400AE0086170800A9
:1000B200752883120313AE15C70A0319C80AB42898
:1000C2002E14C70A0319C80AB428AE14C70A0319A2
:1000D200C80AB428AF15C70A0319C80AB4282E15CE
:1000E200C70A0319C80AB428831203134708A500D4
:1000F2004808A60020208A110A12F10071082D3A40
:1001020003195A284708A5004808A60020208A118A
:100112000A12F1007108203A031961284708A50064
:100122004808A60020208A110A12F10071082B3A11
:10013200031966284708A5004808A60020208A114E
:100142000A12F1007108233A03196B284708A50027
:100152004808A60020208A110A12F1007108303ADC
:1001620003197028B5285928AE1CB8282E10AE1DC8
:0E017200BB282E114708F0004808F1000800D5
:10018000831203134708393C031CCD283030470243
:0E019000031CCD280130F000CE28F00108003D
:10019E0083120313FB01FA01F9018030F800F10C10
:1001AE00F00C031CE3287408F90775080318750F83
:1001BE00FA070318FB0A0310F01FEB287408FA075E
:1001CE0075080318750FFB07FB0CFA0CF90CF80CED
:1001DE00031CD6287B08F3007A08F2007908F10098
:0601EE007808F000080093
:1001F400831203132E1D5529AE1C10292E1C05290C
:100204002D30F30007292B30F300470884007308CE
:100214008000C70AAC0A0319AD0A40292E1C1B2909
:100224004708840020308000C70AAC0A0319AD0ACD
:100234004029C0302E05F1002F080839F200720859
:10024400083A031D272980307106031D40294708F9
:10025400840030308000C70AAC0A0319AD0AAE1E10
:1002640036295830F40038297830F40047088400DF
:1002740074088000C70AAC0A0319AD0A27082804C9
:10028400031954294708840030308000C70AAC0A97
:100294000319AD0A0130A702031CA8032708280488
:1002A400031D4429C3292708280403196B29AE19FF
:1002B4006B294708840020308000C70AAC0A031960
:1002C400AD0A0130A702031CA80327082804031D54
:1002D4005B29AE1C7D292E1C72292D30F500742952
:1002E4002B30F5004708840075088000C70AAC0A63
:1002F4000319AD0A87292E1C87294708840020305A
:100304008000C70AAC0A0319AD0AC0302E05F100FB
:100314002F080839F2007208083A031D9329403067
:100324007106031D9E294708840030308000C70AE7
:10033400AC0A0319AD0AC329C0302E05F1002F08F9
:100344000839F2007208083A031DAA2980307106A0
:10035400031DC3294708840030308000C70AAC0A53
:100364000319AD0AAE1EB9295830F600BB297830FE
:10037400F6004708840076088000C70AAC0A03190F
:10038400AD0A8030F00080302B067002031DCC29AA
:100394002A0829020318D72947088400303080002E
:1003A400C70AAC0A0319AD0AC3294708F0000800BC
:1003B40083120313F801F9011030FC00710DF80DDC
:1003C400F90D7408F8027508031C750FF902031877
:1003D400F2297408F80775080318750FF907031054
:0A03E400F00DF10DFC0BE0290800FC
:1003EE00831203134708C900C90CC913C90CC913DA
:1003FE00C90CC913C90CC913272003204708C9000B
:06040E0027200320080076
:1004140083120313AC01AD01AE01AF014008F0003B
:100424004108F100C00A0319C10A7008A500710847
:10043400A60020208A110A12F0007008A900700892
:1004440003199F2E2908253A0319312A3F088400ED
:1004540029088000BF0AAC0A0319AD0A102AA701B3
:10046400A801AE01AF014008C7004108C8005920E7
:100474007008C0007108C1007008A5007108A600CA
:1004840020208A110A12F0000030F1007008C70021
:10049400C02070080319802AA701A8012708F000CA
:1004A4002808F1000A30F4000030F500CF2040089D
:1004B400A5004108A60020208A110A12F200720841
:1004C4007007A70071080318013EA8003030A70286
:1004D400031CA803C00A0319C10A4008A500410867
:1004E400A60020208A110A12F0000030F1007008E2
:1004F400C700C0207008031D502AA32A4008A50085
:100504004108A60020208A110A12F10071082A3A33
:10051400031DA32A420884000008F0007008840028
:100524000008A700840A0008A800420884000230DA
:100534000007F0004208840070088000C00A031914
:10054400C10A4008A5004108A60020208A110A1209
:10055400F10071082E3A031D092BC00A0319C10AC0
:100564004008A5004108A60020208A110A12F100C3
:1005740071082A3A031DD62A420884000008F000B4
:10058400700884000008AA00840A0008AB0042082E
:10059400840002300007F0004208840070088000E4
:1005A400C00A0319C10A082BAA01AB014008A5001F
:1005B4004108A60020208A110A12F0000030F10040
:1005C4007008C700C02070080319082B2A08F0001F
:1005D4002B08F1000A30F4000030F500CF20400869
:1005E400A5004108A60020208A110A12F200720810
:1005F4007007AA0071080318013EAB003030AA024C
:10060400031CAB03C00A0319C10AD82A0B2BAA0185
:10061400AB014008F0004108F100C00A0319C10A07
:100624007008A5007108A60020208A110A12A900EA
:10063400E32B2C08F0002D08F100A32E2E17142C08
:10064400142CAE16AE17142C420884000008F000D7
:10065400700884000008C30042088400000AF00007
:1006640042088400700880004308003A031D3C2BB4
:100674002030C300C401C5014408430784000008B6
:100684000319512B4408013EF00000300318013EC9
:100694004507F1007008C4007108C5003E2B2A0804
:1006A4002B040319612B45082B02031D5B2B440803
:1006B4002A020318612B2A08C4002B08C500280845
:1006C4004502031D672B270844020318702B4408B6
:1006D400A702031CA8034508A802722BA701A801BE
:1006E400AE19892B2708F0002808F1000130A70271
:1006F400031CA803700871040319892B3F088400A4
:1007040020308000BF0AAC0A0319AD0A742B4408D8
:10071400F2004508F30001304402F0000030031CED
:10072400013E4502F1007008C4007108C50072085A
:1007340073040319AE2B430884000008F0003F083B
:10074400840070088000BF0A430AF0007008C300E8
:10075400AC0A0319AD0A892BAE1DC52B2708F0007E
:100764002808F1000130A702031CA80370087104D3
:100774000319C52B3F08840020308000BF0AAC0A4F
:100784000319AD0AB02B102A420884000008F000B7
:10079400700884000008A9004208840002300007A1
:1007A400F00042088400700880002930C300013042
:1007B400C4000030C500512BC030AE040030AF047B
:1007C400142C2908003A03191B2B29086C3A031925
:1007D400202B29084C3A0319202B29086F3A0319B6
:1007E400202B2908643A0319222B2908693A031992
:1007F400222B2908703A0319232B2908583A031984
:10080400232B2908783A0319242B2908733A03194E
:10081400262B2908633A0319C62B2908753A0319AC
:10082400DE2BD72BC0302E05F1002F08F20000304C
:10083400F20500307206031D212C00307106031DE1
:10084400532C420884000008F0007008840000085B
:10085400C300840A0008C400420884000230000770
:10086400F000420884007008800080304406F000E4
:1008740080307002031D402C003043020318522CB8
:100884000330AE040030AF044308003CF0004408D9
:10089400031C013EF101F1027008C3007108C40099
:1008A400672C420884000008F000700884000008E7
:1008B400C300840A0008C400420884000230000710
:1008C400F000420884007008800000302B06031DED
:1008D4006D2C00302A06031D7A2C00304406031DBB
:1008E400752C00304306031D7A2CAA0A0319AB0A9F
:1008F400C0302E05F0007008F400072D0130A90067
:100904002908053A0319AC2C2908F000F101F00D6F
:10091400F10D7010BB30F00707300318013EF107EA
:100924007008A5007108A60020208A110A12F2009E
:10093400A50A0319A60A20208A110A12F3007308D3
:100944004402031DA72C720843020318AA2CAC2CE2
:10095400A90A822C172D0130A9002908043A031989
:10096400D92C2908F000F101F00DF10D7010C530FB
:10097400F00707300318013EF1077008A50071085D
:10098400A60020208A110A12F200A50A0319A60A59
:1009940020208A110A12F30073084402031DD42C88
:1009A400720843020318D72CD92CA90AAF2C172D8F
:1009B4000130A9002908063A0319062D2908F00078
:1009C400F101F00DF10D7010AF30F007073003188E
:1009D400013EF1077008A5007108A60020208A11C5
:1009E4000A12F200A50A0319A60A20208A110A1283
:1009F400F30073084402031D012D72084302031817
:100A0400042D062DA90ADC2C172D7408003A0319AD
:100A1400802C7408C03A0319802C7408803A031996
:100A2400AD2C7408403A0319DA2C8030F000803081
:100A34002B067002031D202D2A0829020318252DD8
:100A44002A08A900332D80302B06F0008030700274
:100A5400031D2E2D29082A020318332D2908AA0064
:100A6400AB01270828040319462D03302E05F00096
:100A74002F08F1000030F105700871040319462DA8
:100A84000130A702031CA80380302B06F00080303D
:100A940028067002031D502D27082A020318592D19
:100AA4002A08A702031CA8032B08A8025B2DA70190
:100AB400A801C4302E05F1002F080839F20072088D
:100AC400083A031D672D40307106031D722D270857
:100AD40028040319712D0130A702031CA803922DC9
:100AE400C0302E05F1002F080839F2007208083AC8
:100AF400031D7E2D80307106031D922D8030F00081
:100B0400803028067002031D892D2708023C031833
:100B1400902D0230A702031CA803922DA701A8015F
:100B24003F08C700FA207008BF002A08F0002B080D
:100B3400F1000130AA02031CAB037008710403190D
:100B4400812EC0302E05F0007008C600682E2A08D9
:100B5400F0002B08F100F00DF10D7010BB30F00720
:100B640007300318013EF1077008A5007108A600BC
:100B740020208A110A12F400A50A0319A60A2020CB
:100B84008A110A12F5004308F0004408F100DA2142
:100B94000A30F4000030F500DA217808F000790812
:100BA400F10030307007A900782EAE1E0D2E2A08F1
:100BB400F0002B08F100F00DF10D7010C530F007B6
:100BC40007300318013EF1077008A5007108A6005C
:100BD40020208A110A12F400A50A0319A60A20206B
:100BE4008A110A12F5004308F0004408F100DA21E2
:100BF4000F30F0050030F1058D30F0070730031891
:100C0400013EF1077008A5007108A60020208A1192
:100C14000A12A900402E2A08F0002B08F100F00D5A
:100C2400F10D7010C530F00707300318013EF107CD
:100C34007008A5007108A60020208A110A12F40089
:100C4400A50A0319A60A20208A110A12F5004308EE
:100C5400F0004408F100DA210F30F0050030F1050E
:100C64009E30F00707300318013EF1077008A50015
:100C74007108A60020208A110A12A900782E2A08D9
:100C8400F0002B08F100F00DF10D7010AF30F007FB
:100C940007300318013EF1077008A5007108A6008B
:100CA40020208A110A12F400A50A0319A60A20209A
:100CB4008A110A12F5004308F0004408F100DA2111
:100CC40007307005A9003030A907782E4608003A8D
:100CD4000319A92D4608C03A0319A92D4608803ADC
:100CE4000319D72D4608403A0319412E3F088400C2
:100CF40029088000BF0AAC0A0319AD0A972DAE1D5E
:100D04009E2E8030F000803028067002031D8C2E49
:100D14002708003C03189E2E3F08840020308000E2
:100D2400BF0AAC0A0319AD0A0130A702031CA803C9
:100D340027082804031D8E2E102A2C08F0002D08E5
:040D4400F1000800B2
:100D48008312031388163F08C700F721881208008A
:100D5800831203133708840000080319BA2E3708D2
:0E0D680084000008BF00A426B70AAC2E0800C5
:100D760083160313860188120813881383128812B8
:100D860008138230FC00DD30FD00FD0BC82EFC0B85
:100D9600C82E000000000330C90027200320413080
:100DA600FC00EE30FD00FD0BD62EFC0BD62E00000F
:100DB6000330C900272003204130FC00EE30FD003F
:100DC600FD0BE32EFC0BE32E00000330C9002720A9
:100DD60003204130FC00EE30FD00FD0BF02EFC0B35
:100DE600F02E00000230C900272003204130FC000D
:100DF600EE30FD00FD0BFD2EFC0BFD2E0000283015
:100E0600C700F7210C30C700F7210630C700F721CD
:080E16000130C700F7210800BC
:100E1E00831203133708031D182F3808803EB900BC
:100E2E001B2F3808C03EB9000730FC007D30FD0096
:100E3E00FD0B1F2FFC0B1F2F3908C700F7210730A2
:100E4E00FC007D30FD00FD0B2A2FFC0B2A2F080025
:100E5E0020208A110A128000840AA50A0319A60A04
:080E6E00F003031D2F2F080003
:100E76003A3083120313BE003708BF003808C0009B
:100E86003908C1003E30C2000A227008BC00710851
:100E9600BD0070083707840080013C08F0003D085B
:040EA600F10008004F
:100EAA00D827053083120313B3000030B40008308A
:100EBA00B5000030B600BB260C30C700F721B701D9
:100ECA00B8010F273030B700D230B8000730B90068
:100EDA003308BA003408BB003B273030B700AC26D1
:100EEA003A30BF00A4263030B700D530B8000730FA
:100EFA00B9003508BA003608BB003B273030B700C6
:060F0A00AC26862F872FA4
:100FB00020308400053083120313F000CD30A500EB
:080FC0000730A6002F270800EE
:100F1A00303431343234333434343534363437348B
:100F2A003834393441344234433444344534463411
:020F3A00003481
:100F3C003034313432343334343435343634373469
:100F4C00383439346134623463346434653466342F
:020F5C0000345F
:100F5E000134003408340034403400340034023498
:080F6E0000341034003480341B
:100F7600013400340A34003464340034E834033471
:040F860010342734C8
:100F8A000134003410340034003401340034103495
:0A0F9A006E3475346C346C3400348E
:060FA40025346434003422
:060FAA002534643400341C
:02400E004A2F37
:00000001FF
