:02000000532982
:0E0006008312031321088A00200882000800DC
:10001400710DF80DF90D7408F8027508031C750FBD
:10002400F902F00DF10D0F30FC00710DF80DF90D12
:100034007408701C2328F8027508031C750FF90254
:100044002828F80775080318750FF907F00DF10D46
:10005400FC0B1728701834287408F807750803185F
:08006400750FF9070000080008
:10006C00831203137408003A031D45287508003ADF
:10007C00031D4528FF30F0007F30F1009E288312CD
:10008C000313FD01F901F801710870040319003420
:10009C0071087506FA00FA1BFD09FB01F51F5B28B8
:1000AC00F409F509F40A0319F50AF11F6228F0099D
:1000BC00F109F00A0319F10A71087504FA00FA1B28
:1000CC0077280A207B188A28FD1F0034F009F109D3
:1000DC00F00A0319F10AF809F909F80A0319F90ADF
:1000EC000034F51F8628F11B82287108F90070086E
:1000FC00F800F101F0016A28F101F001F00A003476
:10010C00F109F009FB0A6728F80A0319F90A7408BF
:10011C007802031D6A2875087902031D6A28F90103
:10012C00F801F00A0319F10AF11F6A280000FF34E4
:02013C000800B9
:10013E008312031330087D3EF00001300318013E98
:10014E003107F1007008A0007108A10003208A1188
:06015E000A1288000800EF
:10016400E83083120313F4000330F5002408F00090
:100174002508F10036207008AE007108AF00E830A1
:10018400F4000330F5002408F0002508F1003620BF
:100194007808F0007908F1007008AC007108AD002F
:1001A4006430F4000030F5002C08F0002D08F10054
:1001B40036207008A6007108A7006430F4000030EF
:1001C400F5002C08F0002D08F10036207808F00026
:1001D4007908F1007008AC007108AD000A30F40031
:1001E4000030F5002C08F0002D08F10036207008CE
:1001F400A8007108A9000A30F4000030F5002C08AA
:10020400F0002D08F10036207808F0007908F1009C
:100214007008AA007108AB002E08B0002F08B100C6
:100224009F2007160330FC009730FD00FD0B1829B2
:10023400FC0B18290000000007122608B00027084C
:10024400B1009F2087160330FC009730FD00FD0BA2
:100254002929FC0B29290000000087122808B00076
:100264002908B1009F2007170330FC009730FD00D8
:10027400FD0B3A29FC0B3A290000000007132A0859
:10028400B0002B08B1009F2087170330FC00973083
:10029400FD00FD0B4B29FC0B4B29000000008713CC
:0202A400080050
:1002A6000F3083160313870088018312901490126F
:1002B600901A5F291012602910168E010E088F0001
:1002C60010140F08A200A3012208F100F001700823
:1002D600A2007108A3000E08F0040030F1047008B3
:1002E600A2007108A3007008A4007108A500B2203E
:0402F60064297C29D2
:1002FA00C034F934A434B034993492348234F834A2
:04030A008034903477
:02400E004A2F37
:00000001FF
