:040000008A15CC2C65
:10000600710DF80DF90D7408F8027508031C750FCB
:10001600F902F00DF10D0F30FC00710DF80DF90D20
:100026007408701C1C28F8027508031C750FF90269
:100036002128F80775080318750FF907F00DF10D5B
:10004600FC0B102870182D287408F807750803187B
:08005600750FF9070000080016
:10005E00FF308316031388008312071187150716C6
:10006E000630FC003030FD00FD0B3B28FC0B3B281E
:10007E0000000712881F4F2807160630FC0030308C
:10008E00FD00FD0B4828FC0B4828000007124128F4
:02009E00080058
:1000A00083160313880183125608880007118711ED
:1000B00007160630FC003030FD00FD0B5D28FC0B00
:1000C0005D28000007120630FC003030FD00FD0BFB
:0A00D0006728FC0B672800000800F9
:1000DA00831203135508003A031D76288714071064
:1000EA007C285508013A031D7C288710071406301E
:1000FA00FC003030FD00FD0B8028FC0B802800003E
:02010A000800EB
:10010C00831203137408003A031D95287508003AEE
:10011C00031D9528FF30F0007F30F100EE2883128C
:10012C000313FD01F901F80171087004031900347F
:10013C0071087506FA00FA1BFD09FB01F51FAB28C7
:10014C00F409F509F40A0319F50AF11FB228F009AC
:10015C00F109F00A0319F10A71087504FA00FA1B87
:10016C00C72803207B18DA28FD1F0034F009F10999
:10017C00F00A0319F10AF809F909F80A0319F90A3E
:10018C000034F51FD628F11BD2287108F90070082D
:10019C00F800F101F001BA28F101F001F00A003485
:1001AC00F109F009FB0AB728F80A0319F90A7408CF
:1001BC007802031DBA2875087902031DBA28F901C3
:1001CC00F801F00A0319F10AF11FBA280000FF34F4
:0201DC00080019
:1001DE002F2083168801831287118719F82807119B
:1001EE00F92807155508403ED60050200716063050
:1001FE00FC003030FD00FD0B0229FC0B0229000033
:04020E0007120800CB
:100212002F2083168801831287118719122907114B
:10022200132907155508B83ED60050200716063088
:10023200FC003030FD00FD0B1C29FC0B1C290000CA
:040242000712080097
:0E024600F201F101F001F801F30100300800AF
:0E0254008312031327088A0026088200080080
:10026200FB14FB1F3B29FF30F300F200F100F0000A
:08027200FA0DF20CFF30080048
:10027A007B15FB1F47290130F300F201F101F00160
:08028A00FA0DF20CFF30080030
:08029200FA1FF213003008000E
:10029A0083120313F801F9011030FC00710DF80DF7
:1002AA00F90D7408F8027508031C750FF902031892
:1002BA0065297408F80775080318750FF9070310FC
:0A02CA00F00DF10DFC0B53290800A4
:1002D400831203132F1DC529AF1C80292F1C7529D8
:1002E4002D30F30077292B30F3004F088400730876
:1002F4008000CF0AAD0A0319AE0AB0292F1C8B293E
:100304004F08840020308000CF0AAD0A0319AE0ADA
:10031400B029C0302F05F10030080839F200720806
:10032400083A031D972980307106031DB0294F0830
:10033400840030308000CF0AAD0A0319AE0AAF1E24
:10034400A6295830F400A8297830F4004F08840016
:1003540074088000CF0AAD0A0319AE0A28082904DC
:100364000319C4294F08840030308000CF0AAD0A35
:100374000319AE0A0130A802031CA90328082904A2
:10038400031DB429332A280829040319DB29AF19CA
:10039400DB294F08840020308000CF0AAD0A0319FE
:1003A400AE0A0130A802031CA90328082904031D6E
:1003B400CB29AF1CED292F1CE2292D30F500E429AF
:1003C4002B30F5004F08840075088000CF0AAD0A71
:1003D4000319AE0AF7292F1CF7294F08840020308F
:1003E4008000CF0AAD0A0319AE0AC0302F05F10010
:1003F40030080839F2007208083A031D032A403015
:100404007106031D0E2A4F08840030308000CF0A85
:10041400AD0A0319AE0A332AC0302F05F1003008A3
:100424000839F2007208083A031D1A2A803071064E
:10043400031D332A4F08840030308000CF0AAD0AF0
:100444000319AE0AAF1E292A5830F6002B2A783039
:10045400F6004F08840076088000CF0AAD0A03191D
:10046400AE0A8030F00080302B067002031D3C2A57
:100474002A082C020318472A4F08840030308000D1
:10048400CF0AAD0A0319AE0A332A4F08F000080058
:10049400831203134F08393C031C572A30304F0290
:0E04A400031C572A0130F000582AF00108000E
:1004B200752A83120313AF15CF0A0319D00AB42A7F
:1004C2002F14CF0A0319D00AB42AAF14CF0A031982
:1004D200D00AB42AB015CF0A0319D00AB42A2F15AC
:1004E200CF0A0319D00AB42A831203134F08A600B5
:1004F2005008A7002A218A110A12F10071082D3A28
:1005020003195A2A4F08A6005008A7002A218A1167
:100512000A12F1007108203A0319612A4F08A60055
:100522005008A7002A218A110A12F10071082B3AF9
:100532000319662A4F08A6005008A7002A218A112B
:100542000A12F1007108233A03196B2A4F08A60018
:100552005008A7002A218A110A12F1007108303AC4
:100562000319702AB52A592AAF1CB82A2F10AF1DB9
:0E057200BB2A2F114F08F0005008F1000800BE
:10058000A0017208031DD52A7108F2007008F1005D
:10059000F001A0157208031DD52A7108F200F101BF
:1005A000A011201672080319E32A2008F302031D84
:1005B000031CE72A0310F21BEB2AF00DF10DF20DDC
:1005C000F30BDB2AE72A0130FC002321EE2A02305C
:0E05D000FC003D21EE2A0430FC004921080009
:1005DE007C18252BFC18F62A7C19442BEF2AA00137
:1005EE007208031D162B7108F2007008F1007808CE
:1005FE00F000F801A0157208031D162B7108F20009
:10060E007008F100F001A01120167208031D162BC0
:10061E007108F200F101A01572080319382B200899
:10062E00F302031D031C3C2B0310F21B252BF80DAC
:10063E00F00DF10DF20DF30B1C2B3C2B7B1B701CE4
:10064E00402BF81F402BF00A0319F10A0319F20A86
:10065E00031D402BF20CF10CF00CF30A0319442B82
:10066E00402B0130FC002321472B0230FC003D21A2
:10067E00472B0430FC004921472B0830FC00312168
:04068E000000080060
:1006920083160313880183124F08880007158711F8
:1006A20007160630FC003030FD00FD0B562BFC0B0C
:1006B200562B000007120630FC003030FD00FD0B07
:0A06C200602BFC0B602B0000080009
:1006CC0083120313D301D4014030F4000030F50041
:1006DC005108F0005208F10086207008D300710810
:1006EC00D4007008D5006D200630F2005308F000DD
:1006FC005408F10072080319882BF00DF10D7010DD
:10070C00FF3E812B7008D102031CD2037108D20268
:0E071C004F08D50009215108D500EF20080034
:10072A0083120313FB01FA01F9018030F800F10C7E
:10073A00F00C031CA92B7408F90775080318750F28
:10074A00FA070318FB0A0310F01FB12B7408FA0703
:10075A0075080318750FFB07FB0CFA0CF90CF80C5B
:10076A00031C9C2B7B08F3007A08F2007908F1003D
:06077A007808F000080001
:100780008312031372087606A000F801F9017308BA
:100790007702031CE32B7708FD007308F7007D0840
:1007A000F3007608FD007208F6007D08F200750877
:1007B000FD007108F5007D08F1007408FD00700867
:1007C000F4007D08F000770803195C2C7208FA0029
:1007D000F217F61777087302F7000319162C083082
:1007E0007702031C0C2CF7007408F9007508F4005C
:1007F0007608F500F60108307702031C0C2CF70090
:100800007408F9007508F400F50108307702031C3C
:100810000C2C7A08F2005C2C77080319162C0310B4
:10082000F60CF50CF40CF90CF70B0F2CA01F232C75
:10083000F909F409F509F609F90A0319F40A031983
:10084000F50A0319F60A7908F80774080318740FF3
:10085000F00775080318750FF10776080318760F6F
:10086000F207A01B3C2C031C4C2CF20CF10CF00CDE
:10087000F80CF30F4C2C582C0318502CF809F009E5
:10088000F109F209F80A0319F00A0319F10A031928
:10089000F20A8030FA06542C0130FC00EF225E2C64
:1008A0000230FC00EF225E2C0430FC00C0225E2CE3
:1008B0000830FC0031215E2C0030FC0000000800F4
:1008C0007B14FB1F6B2CF201FA1FFF30F200F100CA
:0A08D000F000FA0DF20CFF300800F2
:1008DA008312031348083B3C0318E02C40304802BB
:1008EA000318E02C4708CF00D0014808D100D201F4
:1008FA006623CA014808403CF100F201031CF203D6
:10090A008030F000803072067002031D8E2C710850
:10091A004A020318B02C20304902F000F101031CEE
:10092A00F1030530F4000030F50095234A08F0077A
:10093A000318F10A8B30F0070D300318013EF10756
:10094A007008A6007108A7002A218A110A12CF008E
:10095A004923CA0A7F2C4708CF00D0014030D10072
:10096A000030D20066234808403CCA0005304A02DB
:10097A000318DF2C20304902F000F101031CF103B7
:10098A000530F4000030F50095234A08F0070318F3
:10099A00F10A8B30F0070D300318013EF107700899
:1009AA00A6007108A7002A218A110A12CF0049233A
:1009BA00CA0ABB2C0C2D4708CF00D0014808D10029
:1009CA00D2016623CA0105304A0203180C2D2030D1
:1009DA004902F000F101031CF1030530F400003074
:1009EA00F50095234A08F0070318F10A8B30F0073F
:1009FA000D300318013EF1077008A6007108A70020
:100A0A002A218A110A12CF004923CA0AE82C0800AF
:060A1A00FB15FF3008008F
:100A2000C530831203139F050330F1003F08F00027
:100A3000710803191F2DF00D7010FF3E192D70085D
:100A40009F040630FC003030FD00FD0B252DFC0B13
:100A5000252D00001F151F1D2E2D2B2D1E08F1000A
:0E0A6000F00183161E08F0070318F10A0800C3
:100A6E00831203137408003A031D522D7508003AC1
:100A7E00031D522D7608003A031D522D7708003AB9
:100A8E00031D522DFF30F000FF30F1007F30F200D9
:100A9E00FF30F300ED2D8312031377080319E12DB8
:100AAE0073080319E42D720876068039FA00F217DE
:100ABE00F617A0017208F8007108FC007008FD001E
:100ACE007408FD027508031C750FFC027608031CE2
:100ADE00760FF802F801FC01FD01031C7D2D0310B9
:100AEE00F20CF10CF00CF80C0130A0007708F302B8
:100AFE00031C872D7E302007F3070318E72D8C2D5E
:100B0E007E302007F307031CEA2D1830FA07FD0D7F
:100B1E00FC0DF80DF00DF10DF20DA00D7408F002A4
:100B2E007508031C750FF1027608031C760FF2028E
:100B3E00760DA004201CA52D7D14B02D7408F00791
:100B4E0075080318750FF10776080318760AF20771
:100B5E007D10FA031F307A05031D8E2D7B1B7D1C25
:100B6E00D72D0310F00DF10DF20DA00D7408F0024B
:100B7E007508031C750FF1027608031C760FF2023E
:100B8E00760D20040139FD070318FC0A0319F80A33
:100B9E00031DD72DF80CFC0CFD0CF30A0319E72DE1
:100BAE00FA1FF8137808F2007C08F1007D08F000B7
:100BBE000030EC2D01300D25EC2D02302321EC2DD3
:0E0BCE0004303121EC2D08303D2100000800DC
:100BDC00831203134008C300C2014208410784007A
:100BEC000008003A03190F2E80304302031C012E1B
:100BFC00C001C301BF0A3F08C7004308C800420830
:100C0C00410784000008C9006D240730C307C20ADD
:040C1C00F32D0800AC
:100C2000831203137008F8007108F000F101F2015B
:100C3000F301FB01FC019630F300FA017008F100AA
:0C0C40007808F000F801F201C022080062
:100C4C0083120313FB017308031D770803197D2E10
:100C5C0072087606FA007708F3077E30031C3A2EEA
:100C6C00F3020318802E3D2EF302031C832E720810
:100C7C00F8007108FC007008FD00F817F617031057
:100C8C00F201F101F0011830A0007D1C572E740800
:100C9C00F00775080318750FF10776080318760F1F
:100CAC00F207F20CF10CF00CF80CFC0CFD0C031020
:100CBC00A00B4B2EF21B672EF80DF00DF10DF20D63
:100CCC00F3037B1B701C792EF81F792EF00A031985
:100CDC00F10A0319F20A031D792EF20CF10CF00C37
:100CEC00F30A0319802EFA1FF2130030852E0130FF
:100CFC002321852E02303121852E04303D21000028
:020D0C000800DD
:100D0E004130831203139F00CB3083169F000800DF
:100D1E0083120313BF01C0018030F0008030400603
:100D2E007002031D9C2E3F08073C031CBC2E3F087F
:100D3E00CF004008D000D101D2016623C101C2010B
:100D4E008030F000803042067002031DB02E410844
:100D5E003F3C031CB82ECF014923C10A0319C20A16
:100D6E00A72EBF0A0319C00A932EBF01C0018030FF
:100D7E00F000803040067002031DC72E3F08073C6E
:100D8E00031CE92E3F08CF004008D0004030D100B0
:100D9E000030D2006623C101C2018030F0008030E5
:100DAE0042067002031DDD2E41083F3C031CE52E5A
:100DBE00CF014923C10A0319C20AD42EBF0A03194F
:060DCE00C00ABE2E080061
:100DD400423083120313C6003F08C7004008C8000E
:100DE4004108C9004630CA008A1500208A117008DB
:100DF400C4007108C50070083F07840080014408DE
:080E0400F0004508F1000800B0
:100E0C008316031387018312871487180F2F07107B
:100E1C00102F07143430FC00F130FD00FD0B142FA3
:100E2C00FC0B142F000000003E30D6005020B830D0
:100E3C00D60050204030D6005020C030D600502074
:080E4C003F30D60050200800E1
:100E54002A218A110A128000840AA60A0319A70A01
:080E6400F003031D2A2F080012
:100E6C0083120313FB01FC01FA0173080319752F9C
:100E7C00F2178E30F302F31B462F0319462F782FEF
:100E8C00F309F30A08307302031C5B2FF300F10D16
:100E9C007208F100F20108307302031C5B2FF10D94
:100EAC00F1017308031D0310632F73080319632FDB
:100EBC000310F20CF10CF30B5E2F7B1B711C6D2FCE
:100ECC00031C6D2FF10A0319F20AF21B842FFA1F6F
:100EDC00872FF209F109F10A0319F20A872FF2019F
:100EEC00F101872F7B14FB1F8A2FF201FA1F8A2F27
:100EFC00FF30F200F100FA0DF20C8A2F0130FC00E9
:100F0C008C2F0030FC008C2FFF30FC00FC080319E8
:0E0F1C00902F60247108F0007208F1000800A8
:0C0F2A00831203138030F606C023080079
:100FCC0021308400053083120313F000DB30A600BF
:080FDC000730A7002A270800D6
:1010000083120313AD01AE01AF01B0014808F00037
:101010004908F100C80A0319C90A7008A600710836
:10102000A7008A112A218A150A12F0007008AC0064
:1010300070080319C72C2C08253A031928284708DB
:1010400084002C088000C70AAD0A0319AE0A0628DE
:10105000A801A901AF01B0014808CF004908D0009C
:101060008A1159228A157008C8007108C9007008D1
:10107000A6007108A7008A112A218A150A12F00019
:101080000030F1007008CF008A114A228A157008DA
:1010900003198228A801A9012808F0002908F100F5
:1010A0000A30F4000030F5008A1195238A154808AB
:1010B000A6004908A7008A112A218A150A12F200FF
:1010C00072087007A80071080318013EA9003030AB
:1010D000A802031CA903C80A0319C90A4808A600E4
:1010E0004908A7008A112A218A150A12F000003047
:1010F000F1007008CF008A114A228A157008031D7A
:101100004C28A6284808A6004908A7008A112A21C9
:101110008A150A12F10071082A3A031DA6284A0806
:1011200084000008F000700884000008A800840A09
:101130000008A9004A08840002300007F0004A08AD
:10114000840070088000C80A0319C90A4808A6006C
:101150004908A7008A112A218A150A12F10071088C
:101160002E3A031D1429C80A0319C90A4808A60003
:101170004908A7008A112A218A150A12F10071086C
:101180002A3A031DDB284A0884000008F000700892
:1011900084000008AA00840A0008AB004A08840002
:1011A00002300007F0004A08840070088000C80A76
:1011B0000319C90A1329AA01AB014808A600490866
:1011C000A7008A112A218A150A12F0000030F100C6
:1011D0007008CF008A114A228A1570080319132952
:1011E0002A08F0002B08F1000A30F4000030F50066
:1011F0008A1195238A154808A6004908A7008A1174
:101200002A218A150A12F20072087007AA007108D2
:101210000318013EAB003030AA02031CAB03C80A1E
:101220000319C90ADD281629AA01AB014808F000F4
:101230004908F100C80A0319C90A7008A600710814
:10124000A7008A112A218A150A12AC00EF292D085D
:10125000F0002E08F100CB2C2F17202A202AAF16E1
:10126000AF17202A4A0884000008F00070088400A4
:101270000008CB004A088400000AF0004A088400F5
:10128000700880004B08003A031D48292130CB002C
:10129000CC01CD014C084B078400000803195D29DF
:1012A0004C08013EF00000300318013E4D07F100EC
:1012B0007008CC007108CD004A292A082B040319B4
:1012C0006D294D082B02031D67294C082A020318BB
:1012D0006D292A08CC002B08CD0029084D02031DDA
:1012E000732928084C0203187C294C08A802031C07
:1012F000A9034D08A9027E29A801A901AF199529C2
:101300002808F0002908F1000130A802031CA903F5
:101310007008710403199529470884002030800063
:10132000C70AAD0A0319AE0A80294C08F2004D081D
:10133000F30001304C02F0000030031C013E4D026E
:10134000F1007008CC007108CD0072087304031915
:10135000BA294B0884000008F00047088400700890
:101360008000C70A4B0AF0007008CB00AD0A0319D1
:10137000AE0A9529AF1DD1292808F0002908F100EF
:101380000130A802031CA903700871040319D129B4
:101390004708840020308000C70AAD0A0319AE0A4E
:1013A000BC2906284A0884000008F0007008840060
:1013B0000008AC004A08840002300007F0004A0828
:1013C0008400700880002C30CB000130CC0000304D
:1013D000CD005D29C030AF040030B004202A2C08B5
:1013E000003A031927292C086C3A03192C292C08D8
:1013F0004C3A03192C292C086F3A03192C292C0874
:10140000643A03192E292C08693A03192E292C084D
:10141000703A03192F292C08583A03192F292C0840
:10142000783A031930292C08733A031932292C0809
:10143000633A0319D2292C08753A0319EA29E329DA
:10144000C0302F05F1003008F2000030F205003006
:101450007206031D2D2A00307106031D5F2A4A08FB
:1014600084000008F000700884000008CB00840AA3
:101470000008CC004A08840002300007F0004A0847
:1014800084007008800080304C06F00080307002CC
:10149000031D4C2A00304B0203185E2A0330AF04B0
:1014A0000030B0044B08003CF0004C08031C013E27
:1014B000F101F1027008CB007108CC00732A4A08D0
:1014C00084000008F000700884000008CB00840A43
:1014D0000008CC004A08840002300007F0004A08E7
:1014E00084007008800000302B06031D792A00302C
:1014F0002A06031D862A00304C06031D812A00306F
:101500004B06031D862AAA0A0319AB0AC0302F0511
:10151000F0007008F400192B0130AC002C08053ADB
:101520000319BA2A2C08F000F101F00DF10D70102A
:10153000C930F00707300318013EF1077008A60014
:101540007108A7008A112A218A150A12F200A60A38
:101550000319A70A8A112A218A150A12F3007308AF
:101560004C02031DB52A72084B020318B82ABA2A86
:10157000AC0A8E2A292B0130AC002C08043A03193E
:10158000E92A2C08F000F101F00DF10D7010D330B4
:10159000F00707300318013EF1077008A600710834
:1015A000A7008A112A218A150A12F200A60A031935
:1015B000A70A8A112A218A150A12F30073084C021D
:1015C000031DE42A72084B020318E72AE92AAC0A31
:1015D000BD2A292B0130AC002C08063A0319182B20
:1015E0002C08F000F101F00DF10D7010BD30F00786
:1015F00007300318013EF1077008A6007108A70024
:101600008A112A218A150A12F200A60A0319A70ACA
:101610008A112A218A150A12F30073084C02031D4D
:10162000132B72084B020318162B182BAC0AEC2A4A
:10163000292B7408003A03198C2A7408C03A03193C
:101640008C2A7408803A0319BB2A7408403A03199B
:10165000EA2A8030F00080302B067002031D322B06
:101660002A082C020318372B2A08AC00452B80309F
:101670002B06F00080307002031D402B2C082A023C
:101680000318452B2C08AA00AB01280829040319CC
:10169000582B03302F05F0003008F1000030F10521
:1016A000700871040319582B0130A802031CA90308
:1016B00080302B06F000803029067002031D622B5B
:1016C00028082A0203186B2B2A08A802031CA90366
:1016D0002B08A9026D2BA801A901C4302F05F10028
:1016E00030080839F2007208083A031D792B40309F
:1016F0007106031D842B280829040319832B01304C
:10170000A802031CA903A42BC0302F05F100300848
:101710000839F2007208083A031D902B80307106D8
:10172000031DA42B8030F000803029067002031DB9
:101730009B2B2808023C0318A22B0230A802031C92
:10174000A903A42BA801A9014708CF008A116A2187
:101750008A157008C7002A08F0002B08F100013034
:10176000AA02031CAB03700871040319A92CC03032
:101770002F05F0007008CE00902C2A08F0002B08EE
:10178000F100F00DF10D7010C930F00707300318AB
:10179000013EF1077008A6007108A7008A112A21EE
:1017A0008A150A12F400A60A0319A70A8A112A2127
:1017B0008A150A12F5004B08F0004C08F1008A1156
:1017C0004D218A150A30F4000030F5008A114D21B0
:1017D0008A157808F0007908F10030307007AC0005
:1017E000A02CAF1E2C2C2A08F0002B08F100F00DC5
:1017F000F10D7010D330F00707300318013EF107E8
:101800007008A6007108A7008A112A218A150A12F9
:10181000F400A60A0319A70A8A112A218A150A12B6
:10182000F5004B08F0004C08F1008A114D218A1593
:101830000F30F0050030F105AC30F0070730031829
:10184000013EF1077008A6007108A7008A112A213D
:101850008A150A12AC00642C2A08F0002B08F1004B
:10186000F00DF10D7010D330F00707300318013E72
:10187000F1077008A6007108A7008A112A218A15AD
:101880000A12F400A60A0319A70A8A112A218A1546
:101890000A12F5004B08F0004C08F1008A114D21A6
:1018A0008A150F30F0050030F1059B30F007073046
:1018B0000318013EF1077008A6007108A7008A11FD
:1018C0002A218A150A12AC00A02C2A08F0002B0845
:1018D000F100F00DF10D7010BD30F0070730031866
:1018E000013EF1077008A6007108A7008A112A219D
:1018F0008A150A12F400A60A0319A70A8A112A21D6
:101900008A150A12F5004B08F0004C08F1008A1104
:101910004D218A1507307005AC003030AC07A02C83
:101920004E08003A0319BD2B4E08C03A0319BD2BCF
:101930004E08803A0319F12B4E08403A0319652CE2
:10194000470884002C088000C70AAD0A0319AE0AB4
:10195000AB2BAF1DC62C8030F00080302906700202
:10196000031DB42C2808003C0318C62C470884002B
:1019700020308000C70AAD0A0319AE0A0130A80260
:10198000031CA90328082904031DB62C06282D08CA
:08199000F0002E08F100080030
:101998008A11E6278A1583120313B701B8018A1141
:1019A80006278A158A118F268A158A1187268A158D
:1019B800880105148312BF01C0018A1110258A15F8
:1019C8008A1110268A150030F4004030F5001C30CA
:1019D800F6008C30F7008A1126268A150030F400AC
:1019E800C030F5007F30F6008830F7008A113725BF
:1019F8008A150030F4000030F5002030F6008230FF
:101A0800F7008A1137258A157008BB007108BC00D9
:101A18007208BD007308BE003B08F0003C08F100E6
:101A28003D08F2003E08F3008A1136278A1570082F
:101A3800B9007108BA003908F0003A08F1008A11B3
:101A480010268A157008F4007108F5007208F6006F
:101A58007308F7003B08F0003C08F1003D08F2006D
:101A68003E08F3008A1195278A150030F4000030EB
:101A7800F5004830F6008530F7008A1126268A15C9
:101A88008A1136278A157008B7007108B8003130F6
:101A9800BF00E030C0000730C1003908C2003A0872
:101AA800C3008A11EA268A15CF01D0010130D1007E
:101AB8000030D2008A1166238A15BF010130C000A8
:101AC8003130C1008A11EE258A15C7010B30C800D4
:101AD8002E30C9008A116D248A153130BF00E330D9
:101AE800C0000730C1003708C2003808C3008A1197
:101AF800EA268A15BF011030C0003130C1008A11B2
:081B0800EE258A15DE2C872D65
:100F3600303431343234333434343534363437346F
:100F46003834393461346234633464346534663435
:020F5600003465
:100F5800303431343234333434343534363437344D
:100F680038343934413442344334443445344634D3
:020F7800003443
:100F7A00013400340834003440340034003402347C
:080F8A000034103400348034FF
:100F9200013400340A34003464340034E834033455
:040FA20010342734AC
:100FA6000134003410340034003401340034103479
:0A0FB6006E3475346C346C34003472
:060FC00025346434003406
:060FC60025346434003400
:101B160000340034003400340034003400345F34C0
:101B260000340034003407340034073400341434ED
:101B36007F3414347F34143424342A347F342A34E2
:101B4600123423341334083464346234363449345A
:101B56005534223450340034053403340034003410
:101B660000341C34223441340034003441342234ED
:101B76001C34003408342A341C342A34083408341B
:101B860008343E34083408340034503430340034D9
:101B96000034083408340834083408340034303447
:101BA6003034003400342034103408340434023421
:101BB6003E345134493445343E34003442347F3463
:101BC600403400344234613451344934463421348B
:101BD600413445344B3431341834143412347F34A0
:101BE6001034273445344534453439343C344A348A
:101BF60049344934303401347134093405340334FA
:101C0600363449344934493436340634493449344F
:101C160029341E340034363436340034003400346B
:101C26005634363400340034003408341434223444
:101C360041341434143414341434143441342234F6
:101C4600143408340034023401345134093406346F
:101C560032344934793441343E347E3411341134CB
:101C660011347E347F3449344934493436343E3471
:101C760041344134413422347F34413441342234B6
:101C86001C347F3449344934493441347F3409346F
:101C96000934013401343E34413441345134323450
:101CA6007F340834083408347F34003441347F34B8
:101CB600413400342034403441343F3401347F34DD
:101CC60008341434223441347F34403440344034B0
:101CD60040347F340234043402347F347F34043495
:101CE600083410347F343E344134413441343E3478
:101CF6007F3409340934093406343E3441345134CE
:101D060021345E347F340934193429344634463458
:101D16004934493449343134013401347F3401348F
:101D260001343F344034403440343F341F3420348F
:101D3600403420341F347F342034183420347F3428
:101D46006334143408341434633403340434783478
:101D56000434033461345134493445344334003453
:101D660000347F34413441340234043408341034AE
:101D76002034413441347F34003400340434023496
:101D86000134023404344034403440344034403466
:101D960000340134023404340034203454345434CE
:101DA600543478347F344834443444343834383402
:101DB6004434443444342034383444344434483489
:101DC6007F343834543454345434183408347E341C
:101DD60009340134023408341434543454343C3451
:101DE6007F340834043404347834003444347D3485
:101DF600403400342034403444343D34003400341C
:101E06007F34103428344434003441347F34403431
:101E160000347C3404341834043478347C34083484
:101E26000434043478343834443444344434383450
:101E36007C3414341434143408340834143414340C
:101E460018347C347C34083404340434083448347C
:101E5600543454345434203404343F3444344034F9
:101E660020343C344034403420347C341C34203418
:101E7600403420341C343C344034303440343C3418
:101E8600443428341034283444340C345034503418
:101E960050343C344434643454344C344434003484
:101EA6000834363441340034003400347F3400348E
:0C1EB60000340034413436340834003469
:02400E004A2F37
:00000001FF
